S00F0000776370353266772E7372656387
S214400000383900204D0F4000490F4000490F40004E
S214400010490F4000490F4000490F400000000000D3
S214400020000000000000000000000000490F4000F3
S214400030490F400000000000490F400015034000F3
S214400040490F4000490F4000490F4000490F40000B
S214400050490F4000490F4000490F40000000000093
S214400060490F4000490F400000000000450D400089
S214400070590D40006D0D4000490F4000490F4000AB
S2144000800000000000000000490F4000490F4000FB
S214400090490F4000490F4000490F4000490F4000BB
S2144000A0490F4000490F4000490F4000490F4000AB
S2144000B0490F4000490F4000490F4000490F40009B
S2144000C0490F4000490F4000490F400010B5054C0D
S2144000D0237833B9044B13B10448AFF300800123AF
S2144000E0237010BD54080020000000009C314000E2
S2144000F008B5064B1BB106480649AFF300800648D4
S214400100036813B1054B03B1984708BD00000000D3
S2144001109C314000580800209C3140000000000000
S21440012008B51520014B984708BD00BF690E400032
S214400130436823F4702343604368090401F4702144
S2144001400B434360704700BF30B443F6992401E048
S214400150013C11D0056915F0020FF9D0446814F03F
S214400160020F06D0120402F4702211430BB141F084
S2144001708071C160002000E0012030BC704700BFA5
S21440018032B100EB8100036B43F001030363704719
S21440019000EB8100036B23F001030363704700BF4D
S2144001A032B100EB8100036B43F0020303637047F8
S2144001B000EB8100036B23F002030363704700BF2C
S2144001C000EB81010B6B23F0F0030B630B6B1A43C0
S2144001D00A63704700EB81010B6B23F47F430B638C
S2144001E00B6B43EA02220A63704700BF00EB8101B3
S2144001F0086B80B20863086B40EA036343EA024236
S2144002000A637047F0B583B005460C460023019359
S214400210184B984207D11F46174E38462146B047DE
S2144002200028FAD117E0154B984207D11E46124DCA
S21440023030462146A8470028FAD118E0104B98428D
S21440024009D11E460F4D304601A9A8470028FAD1CD
S214400250019B23700BE00C4B9D4208D11E46094D76
S214400260304601A9A8470028FAD1019B237003B065
S214400270F0BD00BF00060E40090F400000080E40CB
S21440028000400240310F40000080024070B50C46EE
S2144002901A4B984207D11E46194D30462146A8476C
S2144002A00028FAD120E0174B984207D11E46144D3D
S2144002B030462146A8470028FAD117E0124B98420C
S2144002C007D11E46114D30462146A8470028FAD190
S2144002D00EE00F4B98420DD11E460C4D304621463F
S2144002E0A8470028FAD107E0012070BD012070BD64
S2144002F0012070BD002070BD012070BD00060E407C
S214400300F90E400000080E40004002401D0F40001D
S21440031000800240704700BF10B50C460B4B984714
S21440032040B91CB14A200A4B984710BD4A20094B99
S214400330984710BD012807D11CB15120044B98475F
S21440034010BD5120034B984710BD00BFD911400047
S2144003509D0A4000B90A400010B500211022064B05
S21440036098470146FF2805D80448C9B200221346DC
S214400370034CA04710BD00BFE91540000080004078
S2144003804901400038B52220164CA0470420A0471B
S2144003902320A0471F20144B98472B20134DA847D7
S2144003A01F20A0470920A847114D284600210A468D
S2144003B00B46104CA0472846022100221346A04771
S2144003C02A46136913F4007FFBD00920074CA04748
S2144003D02320054B98470920A0472320014B9847E8
S2144003E038BD00BFB90A40009D0A40000100002009
S2144003F000800040490140002DE9F041044688460F
S21440040015460420134B98471348214600221346AE
S214400410124CA04765B14446A8440F4F00260F4DE6
S214400420384614F8011B32463346A8474445F7D1B0
S214400430094A136913F4007FFBD00920084CA047F3
S2144004402320084B98470920A0472320014B984774
S214400450BDE8F081B90A40000080004049014000F4
S214400460010000209D0A40002DE9F04106468846DE
S21440047015461C46012B39D804201D4B98471D486D
S21440048000210A460B461C4FB8472CB91948822112
S21440049000221346B84705E016484221002213467C
S2144004A0154CA0471348314600221346124CA0472D
S2144004B065B14446A8440F4F00260F4D384614F801
S2144004C0011B32463346A8474445F7D1094A1369CB
S2144004D013F4007FFBD00920084CA0472320084B8C
S2144004E098470920A0472320014B9847BDE8F08154
S2144004F0B90A400000800040490140000100002049
S2144005009D0A400010B50420024902460123024CD1
S214400510A04710BD1C3040006904400008B505499E
S21440052000230B808B70D0230B7001200322024BDC
S214400530984708BD70080020F90340002DE9F041B7
S21440054007464E1E2DD00024194DDFF874802B68C8
S21440055059684A68013A4A60002A03DA18465968D8
S214400560C04704E05A681368591C11601878002880
S21440057005DA1048104B98470120BDE8F0810D2859
S21440058003D00A2809D1234600E023460022FA5425
S214400590A64206D01046BDE8F08138550134B44234
S2144005A0D5D10648044B98470120BDE8F08100BFEE
S2144005B040040020243040002113400034304000E6
S2144005C03113400010B5C0B068464FF48071324BCE
S2144005D0984700285ED19DF800409DF80120A2B1C2
S2144005E02E4B19680A44537813F0080F10D00DF1BB
S2144005F0020304E00A44527812F0080F0AD0184664
S21440060013F8012B002AF5D104E00DF1010001E0BA
S2144006100DF10100A4F13103422B3BD8DFE803F093
S2144006203235383A3A3A3A3A3A3A3A3A3A3A3A3AF4
S2144006303A3A3A3A223A3A3A3A3A3A273A3A3A3A00
S2144006403A3A3A3A3A3A3A3A3A3A3A3A3A3A3A3AC5
S2144006503A3A3A3A223A3A3A3A3A3A2B3A3A3A3ADC
S2144006603A3A2F000E4CA0470E48A04712E0012110
S2144006700D4B98470EE000210B4B98470AE00B4B7A
S214400680984707E00A4B984704E00A4B984701E032
S214400690094B984740B010BD3D0540001000002073
S2144006A021134000443040001903400059034000E5
S2144006B0850340001D0540000505400010B5042098
S2144006C04FF06051074CA04723204FF06051A047A1
S2144006D022204FF06051A0471F204FF06051A047A6
S2144006E010BD00BFD50A400000B585B0364B9847D0
S2144006F0364B9847364B98470820364DA847364CD9
S214400700364B1C60364A374B1A60374A374B1A60AE
S214400710374B01934FF4E13302934FF40063039356
S2144007200820A847204601A9324B9847324D2B68EF
S21440073098680021314CA0472B6858680021A04794
S2144007402F48304B9847304C2046304B9847022332
S2144007502360802323604FF080732360636843F0F8
S21440076001036360636843F01003636020460E2114
S214400770274B9847204600210A46264B9847204656
S21440078000210A46244B9847204600210A46234B20
S214400790984720460021B022214B9847204600210A
S2144007A0402210231F4DA847012323601E4B1F4A9B
S2144007B05A60F0211E4A82F8231000229A600722CF
S2144007C01A601C4CA047FDE739084000310940003C
S2144007D0BD064000690E400000060E402809002075
S2144007E08D02400024090020050240002009002018
S2144007F0000E2707C10E400040040020651340004D
S2144008004830400021134000008000402101400055
S2144008103101400081014000A1014000C10140007B
S214400820D5014000ED01400010E000E07F4F12008F
S21440083000ED00E0C505400010B50E480E4B984749
S21440084000203E210D4B98470D4CA0470028FCD079
S2144008500C4B98470C4A0D4B9A620D4CA04700280B
S214400860FCD010200B4B98470B4B98470148024B47
S214400870984710BD000E270715114000E50D4000B3
S214400880390E4000490E4000013F132000040E4040
S214400890590E4000810D4000011040002DE9F04106
S2144008A00C46904660B9002A0EDD8F18094E0A4D58
S2144008B0306821462B6898470134BC42F8D106E0A0
S2144008C04FF0FF30BDE8F0810020BDE8F0814046A3
S2144008D0BDE8F08128090020200900202DE9F041DC
S2144008E00E461546013802280FD892B10024DFF88C
S2144008F03C800D4FD8F80000315D3B689847002893
S2144009000ADB0134A542F5D10AE04FF0FF30BDE8DE
S214400910F0810020BDE8F0814FF0FF30BDE8F08167
S2144009202046BDE8F08100BF2409002028090020A9
S21440093010B54FF40042164B5A600B20154CA0479A
S2144009400C20A0470D20A0474A204FF06051124C83
S214400950A04751204FF06051A04705200F49A047BF
S2144009600F484FF4C0614FF000620E4B98470C2082
S2144009704FF00061A0470D204FF00061A0470E20C9
S2144009804FF00061A0470B204FF00061A04710BD1C
S21440099050140E40690E4000D50A400079000028E9
S2144009A0000E0E40F90B400010B44264B1F1C05F37
S2144009B02ED008D8B1F1006F14D0B1F1805F1DD0B1
S2144009C0002935D135E0B1F1205F32D003D8B1F1FE
S2144009D0005F27D02CE0B1F1405F2AD0B1F1605FD4
S2144009E027D025E0016F046FD343214019400167AB
S2144009F0416F446F21400B40436719E0036F134338
S214400A000367436F416F0B4023EA020343670FE0DF
S214400A10036F016F0B4023EA02030367436F1343E0
S214400A20436705E0036F13430367436F134343670E
S214400A3042605DF8044B7047416412F0010F14BFEA
S214400A404166016612F00A0F14BF0162416212F05D
S214400A50020F02D0C0F8801004E012F0080F18BF52
S214400A60C0F8841041610160704700BF10B4416413
S214400A70019C0CB1416600E001660BB1016500E0E7
S214400A8041650AB1016300E04163016101605DF8C0
S214400A90044B7047C06C7047806C7047430903F541
S214400AA0001303F207735B0200F01F00012202FAF4
S214400AB000F01863704700BF430903F5001303F2C4
S214400AC007735B0200F01F00012202FA00F0586331
S214400AD0704700BF70B582B00D46440904F5001457
S214400AE004F20774660201F0F044B4F1005F47D0A8
S214400AF009D8B4F1805F21D0B4F1C05F2FD0B4F1F3
S214400B00006F6FD109E0B4F1405F55D0B4F1605F3B
S214400B1052D0B4F1205F44D064E000F01F000124BE
S214400B20844030464FF000612246304B984715F0DF
S214400B30010F14BF74663466012054E000F01F00B5
S214400B400124844030464FF080512246274B984738
S214400B5015F0010F14BF74663466012043E000F0C0
S214400B601F000124844030464FF0C05122461F4BA0
S214400B70984715F0010F14BF74663466012032E0C2
S214400B8000F01F000124844030464FF000512246BA
S214400B90164B984715F0010F14BF74663466012053
S214400BA021E000F01F010124304604FA01F12A46F4
S214400BB00F4B9847204616E000F01F01012405F031
S214400BC0605205EA04030093304604FA01F1B2F19C
S214400BD0605F14BF00220122C5F38003054DA8477D
S214400BE0204600E0002002B070BD00BFA9094000CA
S214400BF0390A40006D0A4000F0B583B007460E46FD
S214400C00154602F0F044B4F1005F38D009D8B4F18C
S214400C10805F1CD0B4F1C05F25D0B4F1006F50D1D6
S214400C2009E0B4F1405F3AD0B4F1605F37D0B4F138
S214400C30205F30D045E04FF000613246224B984767
S214400C4015F0010F14BF7E663E6601203AE04FF075
S214400C50805132461C4B984715F0010F14BF7E66F4
S214400C603E6601202EE04FF0C0513246164B984764
S214400C7015F0010F14BF7E663E66012022E04FF05D
S214400C8000513246104B984715F0010F14BF7E6650
S214400C903E66012016E00D4B9847012012E005F015
S214400CA0605205F00103009338463146B2F1605F6A
S214400CB014BF00220122C5F38003054CA047012043
S214400CC000E0002003B0F0BDA9094000390A40000A
S214400CD06D0A40002DE9F84381460E46144B98476E
S214400CE005464846134B9847054017D0124F07F124
S214400CF00C046C3754F80C3CB3420AD154F8081C28
S214400D00294206D023683046984754F8083C25EADE
S214400D100305BC4202D01034002DEBD1074B1B68B4
S214400D2023B1074B1B680BB148469847BDE8F8838C
S214400D30950A4000990A4000780800202C090020B7
S214400D407408002008B502480B21024B984708BD9E
S214400D50000E0E40D50C400008B502480C21024B50
S214400D60984708BD00100E40D50C400008B5024814
S214400D700D21024B984708BD00120E40D50C40008E
S214400D80174B1A6B22F07002104318639B6E13F0D9
S214400D90080F09D14FF40063114901E0013B19D017
S214400DA08A6E12F0080FF9D00D4B1A6B22F0030230
S214400DB042F002021A63986E10F008000CD14FF40D
S214400DC00063074901E0013B08D08A6E12F0080F25
S214400DD0F9D07047012070470020704701207047C7
S214400DE000040E4038B111490B6A114A1A40114BA3
S214400DF013430B6270470D4A136A23F45C1323F0C7
S214400E00030343F45C1343F00103090289B20B4326
S214400E101362936E13F0010FFBD0044A136A43F03B
S214400E209B7343F480331362704700BF00040E4048
S214400E30FCFFC8FE02003701024B986E00F480307B
S214400E40704700BF00040E404FF00052014B9A62BC
S214400E50704700BF00040E40024B986E00F0020040
S214400E60704700BF00040E40222820D81F280DD807
S214400E70124B9A69012383401A40934219D00123AA
S214400E8003FA00F00D4B1861002070470B4BD3F867
S214400E9008212038012383401A4093420BD0012377
S214400EA003FA00F0054BC3F800010020704701200C
S214400EB07047002070470020704700BF00040E4077
S214400EC010B4AC2303600A684B68B2FBF3F31B090B
S214400ED05C1E4FF6FE7294420AD803628B684360EB
S214400EE040F20223C0F8203150230360002000E087
S214400EF001205DF8044B7047436913F0020F1ABF98
S214400F00C161002001207047436913F0010F1DBFE7
S214400F1083690B7000200120704700BF436913F0BF
S214400F20020F1DBFC1F30801C161002001207047B8
S214400F30436913F0010F05D08369C3F308030B60C0
S214400F400020704701207047FEE700BF10B5204BD9
S214400F50204A9A4212D9204B1D4A9A421FD2131D4C
S214400F601E4CE41A24F003040434002310461949A6
S214400F705A581A500433A342FAD110E0144B154A7B
S214400F809A420CD2144A1946D31A1548184433B11B
S214400F9013469C1A245843F8044D9942F9D100BF91
S214400FA0104B114A9A420BD2131F1049C91A21F00E
S214400FB003011A1D1144002243F8042F8B42FBD133
S214400FC00B4B0C4A9A600C4B98470C4B9847FEE7E5
S214400FD0000000209C3140005408002057080020A4
S214400FE09831400034090020540800202F09002082
S214400FF000ED00E000004000E1114000E90640003E
S2144010003D4B1B6B03F00303032B5DD8DFE803F077
S214401010020E2B2B394B5B6913F0800F14BF4FF435
S21440102000424FF4FA42364B1A604DE0324B1B6A90
S21440103013F0807F03D0334A314B1A6044E0324A83
S2144010402F4B1A602C4B1B6A03F07003102B02D0F8
S214401050202B04D038E02D4A294B1A6034E0294A28
S214401060274B1A6030E0244B1B6A13F0807F03D076
S214401070244A234B1A6012E0234A214B1A601E4B27
S2144010801B6A03F07003102B02D0202B04D006E01E
S2144010901E4A1B4B1A6002E01A4A194B1A60164B3E
S2144010A01B6B03F00303022B134B07BF986A996A26
S2144010B0D86AD96A124BC0F30A401A6800FB02226B
S2144010C0C9B2B2FBF1F21A600B4B1B6B03F0700314
S2144010D0702B07D10A4B1A680D49A1FB0202520831
S2144010E01A607047044B196B054BC1F302111A681E
S2144010F0CA401A60704700BF00040E4010140E40ED
S2144011000C000020001BB70000093D0000127A00CA
S214401110ABAAAAAA124B984204D84FF08062114B51
S2144011201A607047104B984203D8104A0D4B1A600D
S21440113070470F4B984203D80E4A0A4B1A607047C6
S2144011400D4B984203D80D4A064B1A6070470C4B1D
S214401150984294BF4FF004220A4A024B1A607047E6
S214401160FF2C3101000A0E40FF59620200010004C4
S214401170FF86930300020004FFB3C4040003000488
S214401180FFE0F50500050004094B1B6813B9094A42
S214401190074B1A60064B1B681A180749914204DB36
S2144011A01046034A1060184670474FF0FF307047AD
S2144011B0E808002038390020FCFF01204FF0FF30BF
S2144011C0704700BF4FF400534B600020704700BF8D
S2144011D0012070470020704700210A2200F004BA20
S2144011E070B50F4E0F4D761BB61007D0043D002449
S2144011F0013455F8043F9847A642F9D10A4E0B4DA4
S214401200761B01F0B9FFB61008D0043D0024013427
S21440121055F8043F9847A642F9D170BD70BD00BF4F
S21440122084314000843140008C314000843140009D
S214401230F0B4840743D0541E002A3ED0CDB20346B5
S21440124003E0621E002C38D0144603F8015B9A0770
S214401250F7D1032C2AD9CDB245EA05250F2C45EA0D
S214401260054515D9A4F110073F0903F1100606EB12
S21440127007161A46156055609560D5601032B24222
S214401280F8D104F00F040137032C03EB07130DD9F4
S2144012901E462246043A032A46F8045BFAD8221F22
S2144012A022F003020432134404F003042CB1C9B202
S2144012B01C4403F8011BA342FBD1F0BC7047144604
S2144012C00346C6E7F0B5044689B008460D4600F02A
S2144012D0D1F8A368114F9A890495022100F1010EB6
S2144012E0012604AD029191040590CDF80CE00697D6
S2144012F00796019506D4596E42F4005221F40051E7
S2144013009A8159662046194601AA00F075FC0028C5
S2144013100CBF0A204FF0FF3009B0F0BD74314000DA
S214401320024B01461868FFF7CDBF00BF40040020BF
S21440133038B50C46054608B1836B63B1284621464E
S21440134001F07EFC50B923686268591C013A84E873
S2144013500600187838BD00F09DFAEFE74FF0FF30F2
S21440136038BD00BF00290CBF022200224FF4806324
S21440137000F000B82DE9F0413C4C2568884604460C
S21440138016461F4615B1AB6B002B4FD0022E30D8F9
S214401390002F2EDB2846214600F04EFAA389002275
S2144013A06260A2611A0628D423F083039BB2022E01
S2144013B0A3812DD0B8F1000F3CD0012E13D09BB2A4
S2144013C003F008002A4AEA6380B2C4F80080C4F8F2
S2144013D01080676178B113F0030F18BF0027A7602D
S2144013E00020BDE8F08143F001037A42A381A26168
S2144013F0E5E74FF0FF30BDE8F0812846216900F070
S2144014002DFBA38923F083039BB2022EA381D1D167
S214401410002004F1430243F0020300250121A3818A
S214401420A560226022616161BDE8F081284600F037
S21440143031FAABE7002F08BF4FF48067384600F01C
S21440144025FE804628B1A38943F080039BB2A38142
S214401450B3E74FF4806000F019FE804618B9A389C0
S2144014604FF0FF30D5E74FF48067ECE740040020AC
S2144014708918400020F0030110F00300C0F100007E
S21440148051F8043B00F1040C4FEACC0C6FF000021C
S2144014901CBF22FA0CF213434FF0010C4CEA0C2C02
S2144014A04CEA0C4CA3EB0C0222EA030212EACC12E2
S2144014B004BF51F8043B0430F4D013F0FF0F1FBFB5
S2144014C0013013F47F4F013013F47F0F18BF013003
S2144014D0704700BF2DE9F00F424C82B0D4F800C0F0
S2144014E001900E4600E02646344614F8015B0CEBAD
S2144014F00500407800F0080000F0FF0A0028F2D10E
S2144015002D2D5BD02B2D04BF7578B41C33F0100006
S2144015103CD09946BAF1000F0CBF6FF0004B4FF02D
S214401520004BBBFBF9F8002709FB18BB38460CE01C
S214401530303DAB4219DD7E1C05D0404523D820D037
S21440154009FB0050012714F8015B0CEB0506767882
S21440155016F0040FECD116F0030606D0012E14BF89
S21440156057263726AD1BAB42E5DC7B1C15D0BAF1BF
S214401570000F21D10AB1EFB9116002B0BDE8F00FFB
S21440158070475D45DCDD4FF0FF37DCE7302D1AD085
S214401590002BBED10A239946BCE70199BAF1000F49
S2144015A04FF022030CBF6FF000404FF000400B603E
S2144015B0002AE2D0611EDFE74042DBE7B41C7578C4
S2144015C04FF0010AA2E7207800F0DF00582803D049
S2144015D0002B9ED108239CE7102365789946023459
S2144015E098E700BF1000002030B4044C0D46134668
S2144015F001462A46206830BCFFF76CBF40040020F6
S2144016002F4B1B6870B506460C4613B19A6B002AE2
S21440161036D0A589ABB219070CD52269AAB113F00A
S21440162001011ED0636900215B42A361A160F2B153
S214401630002070BDDA063BD55B0725D4226945F00D
S2144016400803A3819BB2002AE9D103F42071B1F5C7
S214401650007FE4D03046214600F0A8FCA3892269EA
S214401660DDE7980758BF6169A160002AE0D1A389E9
S2144016701A06DDD543F04003A3814FF0FF3070BD1E
S214401680184600F007F9C4E7216B49B104F140035E
S214401690994203D0304600F0E1F9A5890023236340
S2144016A025F02405002322696360ADB22260C6E7B8
S2144016B045F04005092333604FF0FF30A58170BDEB
S2144016C040040020024B13B1024800F005B87047B2
S2144016D000000000911940000146002002460346E3
S2144016E001F0A0BB8B899AB22DE9F0410D46110757
S2144016F080463CD46A6843F40063002AAB8159DDD7
S214401700AC6A002C4BD09BB203F48052002192B2BC
S214401710D8F80060C8F80010002A4FD02A6D5F073E
S21440172005D569682B6B521A0BB1EB6BD21A404643
S214401730E9690023A047441C4AD0AA892B692B603C
S21440174022F400639BB200226A60DA04AB814CD478
S214401750296BC8F8006011B305F14003994202D0E6
S214401760404600F07BF900202863BDE8F0812E69F2
S214401770AEB12C682E6091070CBF6B690023A41B8A
S214401780AB600AE0324623466F6AE9694046B8478E
S2144017900028C0EB0404064404DD002CF2DC0020E4
S2144017A0BDE8F081AB8943F04003AB814FF0FF309A
S2144017B0BDE8F081EA6B002AA2DCF0E70123404650
S2144017C0E969A047431C02461ED0AB89AC6AA6E72F
S2144017D0D8F800305BB9A9896B6021F400639BB2EE
S2144017E02A69AB81DB042A60B2D52865B0E71D2B99
S2144017F001D0162B19D1AA892B692B6022F40062DE
S2144018000023AA816B60A3E7D8F80030002BDCD019
S2144018101D2B07D0162B05D0AB8943F04003AB8178
S214401820BDE8F081C8F80060B9E7AB8943F04003F3
S214401830AB81BDE8F08100BF10B5044682B008B168
S214401840836B53B1B1F90C0008B902B010BD204605
S21440185002B0BDE81040FFF745BF019100F01AF80E
S2144018600199EFE720B1054B01461868FFF7E4BF42
S214401870034B0449186800F071BB00BF40040020C9
S2144018807031400039184000014900F041BB00BFAC
S214401890712F40002DE9F04F846B83B00746002C33
S2144018A065D145683348F8630423032107F53B7246
S2144018B0C7F8E412C7F8E822C7F8E04205F15C0032
S2144018C0AB812C606C60AC606C66EC812C616C61AA
S2144018D0AC6121460822FFF7ABFCBE68DFF898B043
S2144018E0DFF898A0DFF89890DFF89880ED61012344
S2144018F00922C5F820B0C5F824A0C5F82890C5F838
S2144019002C802146F381B28134607460B460746682
S21440191034617461B461082206F15C000193FFF7FC
S21440192087FCFD68F66112200222C6F820B0C6F891
S21440193024A0C6F82890C6F82C802146A881EA81C3
S2144019402C606C60AC606C662C616C61AC6105F1BF
S2144019505C000822FFF76CFC019BED61C5F820B0E7
S214401960C5F824A0C5F82890C5F82C80BB6303B002
S214401970BDE8F08F89184000792D40009D2D40002D
S214401980D52D4000F52D4000704700BF704700BF82
S21440199038B5094D094C641BA41018BF05EB8405E7
S2144019A005D0013C55F8043D9847002CF9D1BDE8D8
S2144019B0384001F0EBBB00BF983140009C314000FE
S2144019C0F8B5234D0F46044600F046FFAB685E6808
S2144019D026F00306F11B01F6EF7121F47F6121F03A
S2144019E00F01A1F58057B7F5805F07DB2046002141
S2144019F001F0B0F9AB683344984204D0204600F07A
S214401A002DFF0020F8BD2046794201F0A3F90130B1
S214401A100DD0104BAA681968F61B46F00106204602
S214401A20C91B5660196000F019FF0120F8BD20461A
S214401A30002101F08FF9AB68C21A0F2ADEDD064D91
S214401A4004492D6842F00102401B5A600860D5E701
S214401A5044040020F8080020500800202DE9F041FA
S214401A600D460646002955D000F0F6FE55F8041CF3
S214401A70DFF874C121F00103A5F10804E218DCF890
S214401A8008005768904227F0030769D011F001011B
S214401A90576032D00021D0194068C00706D43B4476
S214401AA0906800294ED0D268C260906043F0010230
S214401AB06260E350E1B9B3F5007F2DD35A0A042A99
S214401AC06AD89809383041000CEB810C4649DCF85E
S214401AD00820624566D0516821F003018B4202D24D
S214401AE092689445F7D1D368E360A2609C60D46066
S214401AF03046BDE8F04100F0B1BE55F8085C641BC6
S214401B000CF10808A06840452B4443D0E568C56002
S214401B10A860C0E7BDE8F081DB080CEBC3020125F6
S214401B20DCF804009168A1609B1005FA03F31843A3
S214401B30E260CCF8040094603046CC60BDE8F041EA
S214401B4000F08CBE294DA842ADD143F00102CCF83E
S214401B501440CCF81040E060A0606260E350C7E7F5
S214401B601F44CB0707D455F8083CE41A1F44A26824
S214401B70E368D3609A601E4B1B6847F001029F42A1
S214401B806260CCF80840B3D31A4B30461968FFF76A
S214401B9017FFADE701217EE7142A0CD802F15B005F
S214401BA0410091E74B688010012505FA00F0034399
S214401BB04B60134698E7542A03D8180B6E30410002
S214401BC082E7B2F5AA7F03D8D80B773041007BE78F
S214401BD040F254518A4203D8980C7C30410073E757
S214401BE0FC217E2070E700BF440400204C04002007
S214401BF04C080020F40800202DE9F04F936883B08D
S214401C00164681460C462BB38B89190726D5226982
S214401C1022B303F0020292B23568002A2CD04FF06D
S214401C20000ADFF8E8B2D046D84534BF43465B46A4
S214401C3052464846B8F1000F4FD0E169676AB84748
S214401C40002856DDB3681B1A8244C0EB0808B36010
S214401C50002BE9D1002003B0BDE8F08F484621466E
S214401C60FFF7CEFC002840F04881A389356803F092
S214401C70020292B2002AD2D113F0010A42D1D046D3
S214401C80B8F1000F23D09A05A76876D5B845C0F0BE
S214401C90A48013F4906F40F0B2802068BB46514653
S214401CA05A4600F079FDA2682168D21B01EB0B036F
S214401CB0A26023604246B3689B1A9244C2EB08086F
S214401CC0B360002BC6D0A389B8F1000FDBD1D5F89E
S214401CD000A0D5F804800835D2E7D5F800A0D5F89E
S214401CE004800835A0E748462146FFF7A5FD0028B2
S214401CF059D0A38943F040034FF0FF30A38103B08F
S214401D00BDE8F08F9246019293469046B8F1000F98
S214401D102BD0019F002F64D020682169D4F808C0DA
S214401D206269C24534BF5346434688421F4603D97C
S214401D309444634500F3AE80934236DB1346676AAD
S214401D40E16948465A46B847071ED2DDBAEB070A4D
S214401D503AD0B368DB1BBB44C7EB0808B360002B24
S214401D603FF478AFB8F1000FD3D10027D5F800B0D4
S214401D70D5F8048001970835C8E72068236998425B
S214401D8002D86369984572D2B84538BF47463A4646
S214401D90514600F001FDA3682268DB1B3A44A3606D
S214401DA02260002B9FD03A4685E71A465946009354
S214401DB000F0F2FC009BA1682268C91ABAEB070A39
S214401DC01344A1602360C4D148462146FFF734FD42
S214401DD000288ED1CDF804A0BBE720684746C3460E
S214401DE05DE758460A21424600F0F4FB00287FD0C3
S214401DF000F1010A0127CBEB0A0A01978CE722681B
S214401E0021696769C1EB020C07EB47070CF1010239
S214401E1007EBD77742447F10974234BF17463A467F
S214401E205B054FD511464846CDF800C000F036F960
S214401E30DDF800C08346002862D062462169CDF8AE
S214401E4000C000F00FFCA289DDF800C022F49062CA
S214401E5042F08002A2810BEB0C00CCEB0702C4F8E8
S214401E6010B067612060A2604746C34617E76FF030
S214401E700042904538BF424692FBF3F202FB03F322
S214401E80676AE16948465246B84700287FF731AF4F
S214401E90024610E762465946CDF800C000F07CFC8A
S214401EA0DDF800C023686344236048462146CDF8E9
S214401EB000C0FFF7C1FCDDF800C000287FF419AF72
S214401EC0674643E74846CDF800C000F0C9FCDDF859
S214401ED000C083460028BED148462169FFF7BEFDB4
S214401EE0A3890C2223F080039BB2C9F8002001E7A7
S214401EF0012708F1010A01970EE74FF0FF30AAE6E6
S214401F000C23C9F80030A389F4E600BF00FCFF7F2D
S214401F102DE9F04110F5387788461AD000267D68BE
S214401F20BC68013D0FD4A389012B05F1FF3506D9C6
S214401F30B4F90E300133204601D0C04706436B1C2F
S214401F4004F16804EFD13F68002FE8D13046BDE881
S214401F50F0813E463046BDE8F08100BF2DE9F843AB
S214401F6010F53876804689461BD000277568B468D9
S214401F70013D10D4A389012B05F1FF3507D9B4F9EB
S214401F800E3001332146404601D0C84707436B1CFC
S214401F9004F16804EED13668002EE7D13846BDE835
S214401FA0F88337463846BDE8F88300BFF0B58B89DE
S214401FB09AB2960791B00C46054637D4B1F90E1042
S214401FC0002917DB01AA00F0DBFF002810DB029B8C
S214401FD003F47043B3F500514F424F41B3F5004F01
S214401FE02CD0A38943F40063A3814FF480660BE0B2
S214401FF0A3899AB212F0800F43F40063A38114BF02
S21440200040264FF4806600272846314600F046F8C2
S214402010A389002829D01B4AEA6343F08003A381A2
S214402020206020616661A7B911B0F0BD01F143039D
S21440203001220B600B614A6111B0F0BD124AA36ADF
S2144020409342CED1A3894FF480663343A381E6649E
S214402050DAE72846B4F90E1000F0A6FF0028E3D0D1
S214402060A38943F00103A381DEE79A05DCD404F19B
S214402070430243F002030121A38122602261616191
S214402080D2E700BF89184000D52D4000024B0146DC
S214402090186800F003B800BF400400202DE9F04F58
S2144020A001F10B05162D83B0064627D935F00705F6
S2144020B027D4A94225D8304600F0CEFBB5F5FC7FA4
S2144020C026D2C14F4FEAD50C07EBCC03DC689C42C6
S2144020D000F0D2816368E268A16823F003032344DA
S2144020E030465D68CA6045F0010591605D6000F06D
S2144020F0B5FB0834204603B0BDE8F08F1025A94252
S214402100D9D900240C232046336003B0BDE8F08FB5
S2144021105FEA552C00F08A80BCF1040F00F2608123
S2144021204FEA951C0CF1380C4FEA4C01A64F07EBD2
S2144021308101CC68A14205D10CE0002B7ADAE46834
S214402140A14207D0626822F00302531B0F2BF4DD36
S2144021500CF1FF3C0CF1010C9B4B3C6903F1080E63
S214402160744500F07E81616821F003014A1B0F2A06
S21440217000F36481002AC3F814E0C3F810E06ADA7A
S214402180B1F5007F80F03A81C90803EBC1004FEA01
S214402190A1085A688168A1604FF0010909FA08F859
S2144021A048EA0202E0605A608460CC604FEAAC03C2
S2144021B00120984090425BD8024206D12CF0030C96
S2144021C0400002420CF1040CFAD007EBCC0844461F
S2144021D0E146E3689C4207D145E1002A80F25681F9
S2144021E0DB689C4200F03F81596821F003014A1B9E
S2144021F00F2AF2DD1C46D3F80CC054F8088F591944
S21440220045F0010942F00105C3F804903046C8F88D
S2144022100CC0CCF8088079613961C1F80CE0C1F88F
S21440222008E04D608A5000F019FB63E77E214FF0CE
S2144022303F0C7BE72244E3685068A16840F0010504
S214402240CB6030469960556000F008FB0834204665
S21440225003B0BDE8F08F214430464B6843F001039D
S2144022604B6000F0FBFA0834204603B0BDE8F08F20
S214402270BC68636823F00309A94504D3C5EB09038A
S2144022800F2B00F39180514B514A19681368013364
S21440229005EB010A04EB090B00F061810AF5805A50
S2144022A00AF10F0A2AF47F6A2AF00F0A304651468E
S2144022B0019200F04FFDB0F1FF3F8046019A00F0DA
S2144022C00081834500F2FA80DFF810C1DCF8003068
S2144022D0C3455344CCF8003000F04A8112683C496C
S2144022E001321BBFCBEB080B5B44C1F80080CCF837
S2144022F0003018F0070300F01381C3F10802C3F55D
S214402300805390440833C244CAF30B0ACAEB030A0C
S21440231051463046CDF804C000F01CFD431CDDF8A5
S21440232004C000F03581C8EB0002524442F001027E
S214402330DCF80030C7F808805344BC42C8F8042094
S214402340CCF80030DFF894A015D0B9F10F0F40F26A
S214402350EA806168A9F10C0222F0070201F0010E42
S214402360A118052042EA0E0E0F2AC4F804E0486081
S214402370886000F21181174ABC6811688B4288BF9A
S2144023801360154A11688B4288BF1360626822F05A
S21440239003029542C5EB020301D80F2B04DC3046FE
S2144023A000F05CFA0024A5E6621943F0010345F00C
S2144023B0010565603046BA60536000F04FFA083455
S2144023C0204603B0BDE8F08F44040020F408002007
S2144023D050080020F0080020EC080020F8080020F4
S2144023E0BCF1140F61D9BCF1540F00F28F804FEA54
S2144023F0153C0CF16E0C4FEA4C0197E64B0A042B49
S21440240058D9142B00F2AE8003F15B02500007EB64
S2144024108000DFF8BC818368834200F08A805A6877
S21440242022F00302914202D29B689842F7D1D968C3
S2144024307A68E160A3608C60DC60B7E6611942F0C0
S214402440010745F001056560304659611961C1F8DC
S2144024500CE0C1F808E04F608A50083400F0FEF9FE
S21440246048E65A68A2E609F1010919F0030F04F19B
S21440247008047FF4AEAE2DE004F108036469A3427D
S21440248008BF0CF1020C3FF467AE23E619441C4625
S2144024904868DB6854F8082F40F001054D60304628
S2144024A0D3609A6000F0DAF924E60CF15B0C4FEA50
S2144024B04C013BE68A0938325000A8E7BC423FF45C
S2144024C003AFBC68626822F0030262E7D8F8008077
S2144024D098457BD11CF0030FA8F108030CF1FF3C94
S2144024E0F4D17B6823EA00037B60400098423FF6C5
S2144024F0BFAE00283FF4BCAE0342CC467FF465AE88
S214402500400003420CF1040CFAD05EE6BCF5AA7F0C
S2144025101AD84FEAD53C0CF1770C4FEA4C0105E649
S2144025204FF48053EFE60123C8F8043044460022B7
S2144025302FE791100120D8F8042000FA01F10A4351
S214402540C8F80420194674E740F254539C451BD8FB
S2144025504FEA954C0CF17C0C4FEA4C01E6E50AF14B
S214402560100AA3E6542B1FD80A0B6E3250004EE7D3
S214402570CBF30B0100297FF4B1AE0AEB0901BA6830
S21440258041F001015160F6E6FC214FF07E0CCDE5AE
S21440259001224FF0000ACBE604F108013046FFF76F
S2144025A05DFADAF80030E6E6B3F5AA7F03D8CA0B40
S2144025B0773250002BE740F25452934203D88A0CAD
S2144025C07C32500023E7FC207E2220E77B688CE7A5
S2144025D044040020830770B4C9B23FD0541E2AB3C7
S2144025E003788B4223D0431C04E0FCB104788C4231
S2144025F01DD0144613F0030F184604F1FF3203F1C2
S2144026000103F2D1032C14D8651E4CB303788B42D9
S2144026100DD0421C002302E004788C4207D0AB4227
S214402620104603F1010302F10102F5D1002070BC0F
S214402630704741EA0126034646EA064618460433F2
S21440264002687240A2F1013525EA020212F0803F8C
S214402650DAD1043C032C1846F0D8D5E71446D1E727
S2144026602046E4E7844641EA000313F003036DD1B5
S214402670403A41D351F8043B40F8043B51F8043B00
S21440268040F8043B51F8043B40F8043B51F8043B07
S21440269040F8043B51F8043B40F8043B51F8043BF7
S2144026A040F8043B51F8043B40F8043B51F8043BE7
S2144026B040F8043B51F8043B40F8043B51F8043BD7
S2144026C040F8043B51F8043B40F8043B51F8043BC7
S2144026D040F8043B51F8043B40F8043B51F8043BB7
S2144026E040F8043B51F8043B40F8043B51F8043BA7
S2144026F040F8043B403ABDD2303211D351F8043B47
S21440270040F8043B51F8043B40F8043B51F8043B86
S21440271040F8043B51F8043B40F8043B103AEDD2F5
S2144027200C3205D351F8043B40F8043B043AF9D246
S214402730043208D0D2071CBF11F8013B00F8013B19
S21440274001D30B8803806046704700BF082A13D326
S2144027508B078DD010F003038AD0C3F10403D21A3E
S214402760DB071CBF11F8013B00F8013B80D331F872
S214402770023B20F8023B7BE7043AD9D3013A11F8F2
S214402780013B00F8013BF9D20B7803704B7843705D
S2144027908B788370604670478842F0B410D98C18A6
S2144027A0A0420DD28518531E42B121462A4611F842
S2144027B0014D02F8014D013B5C1CF8D1F0BC70475E
S2144027C00F2A3FD940EA01039B073FD1A2F11007E9
S2144027D03F0900EB071610360C46034625681D6079
S2144027E065685D60A5689D60E568DD601033B3424E
S2144027F004F11004F2D17B1C02F00F0C1B01BCF15B
S214402800030F1944034423D90E461D466446043C30
S21440281056F8047B45F8047B032CF8D8ACF1040446
S21440282024F00304043402F0030223442144002A23
S214402830C4D01A4411F8014B03F8014B9342F9D126
S214402840F0BC70470346002AF3D1B7E70346F0E7EB
S2144028506246002AEDD1B1E7704700BF704700BF1F
S2144028602DE9F04F0C4683B090468146002900F093
S214402870E280FFF7F1FF08F10B0654F8043C162EF1
S21440288023F00305A4F108074BD810210E46B045A7
S2144028904CD88D4278DADFF890B3DBF808E0781948
S2144028A0864500F0CE80426822F0010C8444DCF875
S2144028B004C01CF0010F7AD000221046DB0700F15E
S2144028C0928054F8083CC3EB070ADAF8043023F049
S2144028D003032B4488B3704500F0ED8002EB030EF3
S2144028E08E452ADBC36882685746D3609A6057F89D
S2144028F0081FDAF80C30CB602A1F242A996000F2B1
S2144029002681132A40F2B3802368CAF808306368E9
S214402910CAF80C301B2A00F2308108340AF1100342
S214402920A6E026F00706002E3146B0DA0C2300203B
S214402930C9F8003003B0BDE8F08F8B4253DB5746F2
S214402940DAF80C1057F8080F2A1F242AC16088604E
S21440295000F20981132A40F204812168CAF808105F
S2144029606168CAF80C101B2A00F21C8108340AF170
S21440297010022168116061685160A16891601D462F
S214402980DAF804303C465746AA1B0F2A03F00103E8
S21440299019D82B433D447B606B6843F001036B6062
S2144029A04846FFF75BFF204603B0BDE8F08F22F0B5
S2144029B0030202EB050C8C4580DBC26881686546E5
S2144029C0CA609160E0E7B91942F001001E430A442C
S2144029D07E604860536843F00103083153604846C0
S2144029E0FFF73CF8DCE741464846FFF757FB804692
S2144029F0D0B154F8043C23F001023A44A0F1080157
S214402A00914200F09E802A1F242A50D8132A23D8A9
S214402A1003462246116819605168596092689A6068
S214402A2021464846FFF71AF84846FFF717FF404644
S214402A3003B0BDE8F08F114603B0BDE8F04FFFF796
S214402A402DBBDEF8042022F00302501906F1100CCC
S214402A50604519DA704631E723680360636843606F
S214402A601B2A63D800F1080304F10802D2E73B466C
S214402A7022681A6062685A60A2689A603C46754648
S214402A80DAF8043057467FE73744831B43F00103A8
S214402A90CBF808707B6054F8043C03F001031E43F7
S214402AA0484644F8046CFFF7D9FE20467CE72146AA
S214402AB0FFF772FEB4E702EB030C06F110029445F2
S214402AC0FFF63BAF5746DAF80C3057F8081F2A1F78
S214402AD0242ACB60996000F28780132A78D923682D
S214402AE0CAF808306368CAF80C301B2A00F28580A2
S214402AF008340AF1100322681A6062685A60A268B5
S214402B009A600AEB0603C6EB0C0242F00102CBF8D1
S214402B1008305A60DAF8043003F001031E43484692
S214402B20CAF80460FFF79AFE38463DE7A36883601C
S214402B30E368C360242A2CD000F1100304F110028D
S214402B4068E750F8042C22F0030215441CE721469F
S214402B50384675463C46FFF71FFE5746DAF80430BF
S214402B6012E73A4605E7214638461D463C46FFF7FB
S214402B7013FE5746DAF8043006E7A368CAF8103062
S214402B80E368CAF81430242A18D010340AF118031F
S214402B906EE7236903616369436104F1180200F13B
S214402BA0180337E7A168CAF81010E168CAF814108D
S214402BB0242A0FD010340AF11802DAE62369CAF83C
S214402BC018306369CAF81C3018340AF120034FE7FE
S214402BD03B4690E72269CAF818206269CAF81C206A
S214402BE018340AF12002C4E621463846CDF804C01F
S214402BF0FFF7D2FDDDF804C083E7A368CAF81030BB
S214402C00E368CAF81430242A03D010340AF11803B3
S214402C1071E72369CAF818306369CAF81C3018345B
S214402C200AF1200367E700BF44040020838903F0CD
S214402C300903092B01D000207047FEF713BE00BFE2
S214402C40F8B50C46054610B1836B002B43D0A289DD
S214402C5093B2990407D4636E42F4005223F40053AF
S214402C606366A28193B200219F06616030D45E07FE
S214402C7021D5216B61B104F14003994202D0284628
S214402C80FEF7ECFEE36B636000202063002B3FD131
S214402C902369002B4CD0A689B7B2BB071ED1226948
S214402CA022602846E169256A6369A8470028606073
S214402CB009DD0020F8BDD8063FD519072BD442F0D1
S214402CC00402A281E4E71AD1A38943F02003A3813A
S214402CD04FF0FF30F8BDFEF7DDFDB8E71B4B1C4953
S214402CE018680123A38107F00907FFF711F9092F98
S214402CF0A681D4D128462146FEF7F4FCCFE7A28928
S214402D00002342F04002A28163604FF0FF30F8BDDE
S214402D10A36B2360F8BD28462146FEF78DFD0028AC
S214402D20D6D1A289A06022F00802A06192B2C6E77E
S214402D3028462146FFF73AF9ADE742F0400209231C
S214402D402B604FF0FF30A281F8BD00BF70314000CD
S214402D502D2C400038B5074C002305460846236016
S214402D60FEF712FA431C00D038BD2368002BFBD078
S214402D702B6038BD3009002010B50C46B1F90E1056
S214402D8000F038F9002803DB236D0344236510BDAB
S214402D90A38923F48053A38110BD00BF2DE9F041E1
S214402DA00C4689891D46CB051646074606D5B4F916
S214402DB00E100022022300F009F9A18921F4805167
S214402DC0A1813846B4F90E1032462B46BDE8F04194
S214402DD000F014B810B50C46B1F90E1000F0F6F835
S214402DE0A389421C0EBF23F4805343F480532065CE
S214402DF0A38110BDB1F90E1000F068B870B5084C4C
S214402E0006460025084611461A462560FDF766FD2B
S214402E10431C00D070BD2368002BFBD0336070BDD0
S214402E2030090020F0B5274C2668D6F8484185B0D2
S214402E300746002C41D065681F2D1EDD224818B974
S214402E404FF0FF3005B0F0BD4FF4C87003910292CA
S214402E500193FFF71BF90399029A019B0446002849
S214402E60EED0D6F848512560002060600546C6F88A
S214402E704841C4F88801C4F88C013FB9AB1C002017
S214402E800135656044F8231005B0F0BD04EB8500BD
S214402E904FF0010CC0F88820D4F888610CFA05F28F
S214402EA01643022FC4F88861C0F80831E6D1D4F83A
S214402EB08C311A43C4F88C21E0E706F5A674C6F8B0
S214402EC04841B8E7703140008D20400038B5074C87
S214402ED00023054608462360FEF770F9431C00D0E1
S214402EE038BD2368002BFBD02B6038BD300900204E
S214402EF070B50C46054631B110B1836B002B2FD010
S214402F00B4F90C300BB9002070BD28462146FEF7B8
S214402F1093FCE36A064633B12846E16998470028A1
S214402F20B8BF4FF0FF36A3891B061CD4216B41B1B6
S214402F3004F14003994202D02846FEF78FFD002355
S214402F402363616C21B12846FEF788FD0023636445
S214402F50FEF71AFD0023A381FEF718FD304670BD2C
S214402F60FEF798FCCCE728462169FEF777FDDDE7BB
S214402F70024B01461868FFF7BBBF00BF4004002065
S214402F8038B5084C00230546084611462360FEF730
S214402F9019F9431C00D038BD2368002BFBD02B60AA
S214402FA038BD00BF3009002038B5074C0023054621
S214402FB008462360FEF70CF9431C00D038BD236852
S214402FC0002BFBD02B6038BD3009002070B5084C74
S214402FD006460025084611461A462560FEF7FAF8CA
S214402FE0431C00D070BD2368002BFBD0336070BDFF
S214402FF03009002070B5084C0646002508461146A4
S2144030001A462560FDF74AFC431C00D070BD236875
S214403010002BFBD0336070BD30090020000000015B
S2144030200000000053657269616C206572726F72B1
S214403030210D0000427566666572206F7665726681
S2144030406C6F77210D0000002D492D20496E697464
S21440305069616C697A6520535049206173206D61BF
S214403060737465720D000000002020202020202070
S21440307020202828282828202020202020202020E3
S21440308020202020202020202088101010101010F3
S214403090101010101010101010040404040404043F
S2144030A004040410101010101010414141414141D9
S2144030B001010101010101010101010101010101BB
S2144030C001010101101010101010424242424242CB
S2144030D0020202020202020202020202020202028B
S2144030E00202020210101010200000000000000033
S2144030F0000000000000000000000000000000008B
S214403100000000000000000000000000000000007A
S214403110000000000000000000000000000000006A
S214403120000000000000000000000000000000005A
S214403130000000000000000000000000000000004A
S214403140000000000000000000000000000000003A
S214403150000000000000000000000000000000002A
S21440316000000000000000000000000043000000D7
S214403170180000200A000000F8B500BFF8BC08BCE4
S2144031809E467047C5164000F1004000F8B500BFA7
S210403190F8BC08BC9E467047CD004000CE
S21440319CBFF35F8F0138FBD1704700BF00093D007D
S2144031AC68304000000000000000000004030020CF
S2144031BC6C030020D4030020000000000000000038
S2144031CC00000000000000000000000000000000AE
S2144031DC0000000000000000000000006C314000C1
S2144031EC000000000000000000000000000000008E
S2144031FC000000000000000000000000000000007E
S21440320C000000000000000000000000000000006D
S21440321C000000000000000000000000000000005D
S21440322C000000000000000000000000000000004D
S21440323C000000000000000000000000000000003D
S21440324C000000000000000000000000000000002D
S21440325C01000000000000000E33CDAB34126DE6CA
S21440326CECDE05000B000000000000000000000033
S21440327C00000000000000000000000000000000FD
S21440328C00000000000000000000000000000000ED
S21440329C00000000000000000000000000000000DD
S2144032AC00000000000000000000000000000000CD
S2144035DC18000020000000000000000044040020FA
S2144035EC440400204C0400204C04002054040020CA
S2144035FC540400205C0400205C040020640400207A
S21440360C640400206C0400206C0400207404002029
S21440361C740400207C0400207C04002084040020D9
S21440362C840400208C0400208C0400209404002089
S21440363C940400209C0400209C040020A404002039
S21440364CA4040020AC040020AC040020B4040020E9
S21440365CB4040020BC040020BC040020C404002099
S21440366CC4040020CC040020CC040020D404002049
S21440367CD4040020DC040020DC040020E4040020F9
S21440368CE4040020EC040020EC040020F4040020A9
S21440369CF4040020FC040020FC0400200405002058
S2144036AC040500200C0500200C0500201405002005
S2144036BC140500201C0500201C05002024050020B5
S2144036CC240500202C0500202C0500203405002065
S2144036DC340500203C0500203C0500204405002015
S2144036EC440500204C0500204C05002054050020C5
S2144036FC540500205C0500205C0500206405002075
S21440370C640500206C0500206C0500207405002024
S21440371C740500207C0500207C05002084050020D4
S21440372C840500208C0500208C0500209405002084
S21440373C940500209C0500209C050020A405002034
S21440374CA4050020AC050020AC050020B4050020E4
S21440375CB4050020BC050020BC050020C405002094
S21440376CC4050020CC050020CC050020D405002044
S21440377CD4050020DC050020DC050020E4050020F4
S21440378CE4050020EC050020EC050020F4050020A4
S21440379CF4050020FC050020FC0500200406002053
S2144037AC040600200C0600200C0600201406002000
S2144037BC140600201C0600201C06002024060020B0
S2144037CC240600202C0600202C0600203406002060
S2144037DC340600203C0600203C0600204406002010
S2144037EC440600204C0600204C06002054060020C0
S2144037FC540600205C0600205C0600206406002070
S21440380C640600206C0600206C060020740600201F
S21440381C740600207C0600207C06002084060020CF
S21440382C840600208C0600208C060020940600207F
S21440383C940600209C0600209C060020A40600202F
S21440384CA4060020AC060020AC060020B4060020DF
S21440385CB4060020BC060020BC060020C40600208F
S21440386CC4060020CC060020CC060020D40600203F
S21440387CD4060020DC060020DC060020E4060020EF
S21440388CE4060020EC060020EC060020F40600209F
S21440389CF4060020FC060020FC060020040700204E
S2144038AC040700200C0700200C07002014070020FB
S2144038BC140700201C0700201C07002024070020AB
S2144038CC240700202C0700202C070020340700205B
S2144038DC340700203C0700203C070020440700200B
S2144038EC440700204C0700204C07002054070020BB
S2144038FC540700205C0700205C070020640700206B
S21440390C640700206C0700206C070020740700201A
S21440391C740700207C0700207C07002084070020CA
S21440392C840700208C0700208C070020940700207A
S21440393C940700209C0700209C070020A40700202A
S21440394CA4070020AC070020AC070020B4070020DA
S21440395CB4070020BC070020BC070020C40700208A
S21440396CC4070020CC070020CC070020D40700203A
S21440397CD4070020DC070020DC070020E4070020EA
S21440398CE4070020EC070020EC070020F40700209A
S21440399CF4070020FC070020FC0700200408002049
S2144039AC040800200C0800200C08002014080020F6
S2144039BC140800201C0800201C08002024080020A6
S2144039CC240800202C0800202C0800203408002056
S2144039DC340800203C0800203C0800200000020070
S2084039ECFFFFFFFF96
S804400F4D5F
