S00F00005350495F7472792E737265636B
S2144000005039002059084000550840005508400027
S21440001055084000550840005508400000000000C4
S21440002000000000000000000000000055084000EE
S21440003055084000000000005508400055084000A4
S21440004055084000550840005508400055084000F7
S2144000505508400055084000550840000000000084
S214400060550840005508400000000000F5054000D7
S214400070090640001D06400055084000550840004F
S21440008000000000000000005508400055084000F1
S21440009055084000550840005508400055084000A7
S2144000A05508400055084000550840005508400097
S2144000B05508400055084000550840005508400087
S2144000C055084000550840005508400010B5054CFE
S2144000D0237833B9044B13B10448AFF300800123AF
S2144000E0237010BD740800200000000064564000D5
S2144000F008B5064B1BB106480649AFF300800648D4
S214400100036813B1054B03B1984708BD00000000D3
S2144001106456400078080020645640000000000006
S21440012010B50E480E4B984700203E210D4B984781
S2144001300D4CA0470028FCD00C4B98470C4A0D4B62
S2144001409A620D4CA0470028FCD010200B4B9847D5
S2144001500B4B98470148024B984710BD000E2707A7
S214400160210A400095064000E9064000F906400096
S214400170013F132000040E400907400031064000AE
S2144001800D0940002DE9F0410C46904660B9002A22
S2144001900EDD8F18094E0A4D306821462B68984769
S2144001A00134BC42F8D106E04FF0FF30BDE8F081A4
S2144001B00020BDE8F0814046BDE8F08144090020BB
S2144001C03C0900202DE9F0410E461546013802282C
S2144001D00FD892B10024DFF83C800D4FD8F80000CD
S2144001E0315D3B68984700280ADB0134A542F5D1CB
S2144001F00AE04FF0FF30BDE8F0810020BDE8F08116
S2144002004FF0FF30BDE8F0812046BDE8F08100BFEA
S214400210400900204409002010B54FF40042164B18
S2144002205A600B20154CA0470C20A0470D20A04735
S2144002304A204FF06051124CA04751204FF0605179
S214400240A04705200F49A0470F484FF4C0614FF024
S21440025000620E4B98470C204FF00061A0470D20DF
S2144002604FF00061A0470E204FF00061A0470B20E2
S2144002704FF00061A04710BD50140E4019074000D3
S2144002808503400079000028000E0E40A904400077
S21440029010B44264B1F1C05F2ED008D8B1F1006FFF
S2144002A014D0B1F1805F1DD0002935D135E0B1F1D1
S2144002B0205F32D003D8B1F1005F27D02CE0B1F1F7
S2144002C0405F2AD0B1F1605F27D025E0016F046F10
S2144002D0D343214019400167416F446F21400B4092
S2144002E0436719E0036F13430367436F416F0B4047
S2144002F023EA020343670FE0036F016F0B4023EAD4
S21440030002030367436F1343436705E0036F1343DA
S2144003100367436F1343436742605DF8044B70477F
S214400320416412F0010F14BF4166016612F00A0FD5
S21440033014BF0162416212F0020F02D0C0F8801072
S21440034004E012F0080F18BFC0F884104161016045
S214400350704700BF10B44164019C0CB1416600E098
S21440036001660BB1016500E041650AB1016300E03A
S2144003704163016101605DF8044B7047C06C704793
S214400380806C704770B582B00D46440904F5001481
S21440039004F20774660201F0F044B4F1005F47D0FF
S2144003A009D8B4F1805F21D0B4F1C05F2FD0B4F14A
S2144003B0006F6FD109E0B4F1405F55D0B4F1605F93
S2144003C052D0B4F1205F44D064E000F01F00012416
S2144003D0844030464FF000612246304B984715F037
S2144003E0010F14BF74663466012054E000F01F000D
S2144003F00124844030464FF080512246274B984790
S21440040015F0010F14BF74663466012043E000F017
S2144004101F000124844030464FF0C05122461F4BF7
S214400420984715F0010F14BF74663466012032E019
S21440043000F01F000124844030464FF00051224611
S214400440164B984715F0010F14BF746634660120AA
S21440045021E000F01F010124304604FA01F12A464B
S2144004600F4B9847204616E000F01F01012405F088
S214400470605205EA04030093304604FA01F1B2F1F3
S214400480605F14BF00220122C5F38003054DA847D4
S214400490204600E0002002B070BD00BF9102400040
S2144004A02103400055034000F0B583B007460E4692
S2144004B0154602F0F044B4F1005F38D009D8B4F1E4
S2144004C0805F1CD0B4F1C05F25D0B4F1006F50D12E
S2144004D009E0B4F1405F3AD0B4F1605F37D0B4F190
S2144004E0205F30D045E04FF000613246224B9847BF
S2144004F015F0010F14BF7E663E6601203AE04FF0CD
S214400500805132461C4B984715F0010F14BF7E664B
S2144005103E6601202EE04FF0C0513246164B9847BB
S21440052015F0010F14BF7E663E66012022E04FF0B4
S21440053000513246104B984715F0010F14BF7E66A7
S2144005403E66012016E00D4B9847012012E005F06C
S214400550605205F00103009338463146B2F1605FC1
S21440056014BF00220122C5F38003054CA04701209A
S21440057000E0002003B0F0BD91024000210340009F
S214400580550340002DE9F84381460E46144B9847E4
S21440059005464846134B9847054017D0124F07F17B
S2144005A00C046C3754F80C3CB3420AD154F8081C7F
S2144005B0294206D023683046984754F8083C25EA36
S2144005C00305BC4202D01034002DEBD1074B1B680C
S2144005D023B1074B1B680BB148469847BDE8F883E4
S2144005E07D03400081034000940800204809002015
S2144005F09008002008B502480B21024B984708BDDA
S214400600000E0E408505400008B502480C21024BFE
S214400610984708BD00100E408505400008B50248C2
S2144006200D21024B984708BD00120E40850540003C
S214400630174B1A6B22F07002104318639B6E13F030
S214400640080F09D14FF40063114901E0013B19D06E
S2144006508A6E12F0080FF9D00D4B1A6B22F0030287
S21440066042F002021A63986E10F008000CD14FF464
S2144006700063074901E0013B08D08A6E12F0080F7C
S214400680F9D070470120704700207047012070471E
S21440069000040E4038B111490B6A114A1A40114BFA
S2144006A013430B6270470D4A136A23F45C1323F01E
S2144006B0030343F45C1343F00103090289B20B437E
S2144006C01362936E13F0010FFBD0044A136A43F093
S2144006D09B7343F480331362704700BF00040E40A0
S2144006E0FCFFC8FE02003701024B986E00F48030D3
S2144006F0704700BF00040E404FF00052014B9A6214
S214400700704700BF00040E40024B986E00F0020097
S214400710704700BF00040E40222820D81F280DD85E
S214400720124B9A69012383401A40934219D0012301
S21440073003FA00F00D4B1861002070470B4BD3F8BE
S21440074008212038012383401A4093420BD00123CE
S21440075003FA00F0054BC3F8000100207047012063
S2144007607047002070470020704700BF00040E40CE
S21440077008B51520014B984708BD00BF1907400033
S214400780436823F4702343604368090401F47021EE
S2144007900B434360704700BF30B443F6992401E0F2
S2144007A0013C11D0056915F0020FF9D0446814F0E9
S2144007B0020F06D0120402F4702211430BB141F02E
S2144007C08071C160002000E0012030BC704700BF4F
S2144007D032B100EB8100036B43F0010303637047C3
S2144007E000EB8100036B23F001030363704700BFF7
S2144007F032B100EB8100036B43F0020303637047A2
S21440080000EB8100036B23F002030363704700BFD5
S21440081000EB81010B6B23F0F0030B630B6B1A4369
S2144008200A63704700EB81010B6B23F47F430B6335
S2144008300B6B43EA02220A63704700BF00EB81015C
S214400840086B80B20863086B40EA036343EA0242DF
S2144008500A637047FEE700BF10B5204B204A9A4215
S21440086012D9204B1D4A9A421FD2131D1E4CE41A21
S21440087024F0030404340023104619495A581A50E9
S2144008800433A342FAD110E0144B154A9A420CD2D4
S214400890144A1946D31A1548184433B113469C1ABD
S2144008A0245843F8044D9942F9D100BF104B114AE1
S2144008B09A420BD2131F1049C91A21F003011A1D80
S2144008C01144002243F8042F8B42FBD10B4B0C4AB9
S2144008D09A600C4B98470C4B9847FEE70000002068
S2144008E06456400074080020770800206056400098
S2144008F050090020740800204B09002000ED00E05D
S2144009000000400041134000E50A40003D4B1B6B91
S21440091003F00303032B5DD8DFE803F0020E2B2B16
S214400920394B5B6913F0800F14BF4FF400424FF40D
S214400930FA42364B1A604DE0324B1B6A13F0807F0A
S21440094003D0334A314B1A6044E0324A2F4B1A6088
S2144009502C4B1B6A03F07003102B02D0202B04D0C4
S21440096038E02D4A294B1A6034E0294A274B1A6052
S21440097030E0244B1B6A13F0807F03D0244A234B7D
S2144009801A6012E0234A214B1A601E4B1B6A03F082
S2144009907003102B02D0202B04D006E01E4A1B4BBF
S2144009A01A6002E01A4A194B1A60164B1B6B03F08A
S2144009B00303022B134B07BF986A996AD86AD96A11
S2144009C0124BC0F30A401A6800FB0222C9B2B2FBBF
S2144009D0F1F21A600B4B1B6B03F07003702B07D1C0
S2144009E00A4B1A680D49A1FB020252081A6070476A
S2144009F0044B196B054BC1F302111A68CA401A60C2
S214400A00704700BF00040E4010140E400000002047
S214400A10001BB70000093D0000127A00ABAAAAAA44
S214400A20124B984204D84FF08062114B1A607047C0
S214400A30104B984203D8104A0D4B1A6070470F4B24
S214400A40984203D80E4A0A4B1A6070470D4B98429C
S214400A5003D80D4A064B1A6070470C4B984294BF19
S214400A604FF004220A4A024B1A607047FF2C3101AD
S214400A70000A0E40FF59620200010004FF869303FD
S214400A8000020004FFB3C40400030004FFE0F505C1
S214400A9000050004094B1B6813B9094A074B1A6046
S214400AA0064B1B681A180749914204DB1046034A56
S214400AB01060184670474FF0FF307047040900201A
S214400AC050390020FCFF01204FF0FF30704700BF38
S214400AD04FF400534B600020704700BF0120704722
S214400AE0002070472DE9804889B08D4B98478D4B44
S214400AF098478D488D4B98478D4C20468D4B984750
S214400B0002232360802525604FF08073236063684E
S214400B1043F001036360636843F01003636020465C
S214400B200E21854B9847204600210A46834B98471E
S214400B30204600210A46824B9847204600210A4616
S214400B40804B984720460021F0227F4B984720460E
S214400B500021402210237D4EB047012626602046C5
S214400B602946002213467A4DA847204631460022A1
S214400B701346A847774F3846774EB04720468121E0
S214400B8000221346A847204600210A460B46A8479F
S214400B9020460D2100221346A8473846B047DFF8C6
S214400BA0E0B1DFF8E0912F46584606A904AA05AB07
S214400BB06A4CA04706A86A496A4B984700284AD11B
S214400BC0059D04A86849674B984758B9584C204635
S214400BD0802100221346B847204641210022134672
S214400BE0B84715E004A861495E4B984758B9504C41
S214400BF02046802100221346B84720468121002205
S214400C001346B84704E05A4804A9534B9847CBE7E5
S214400C10039500220292DDE902014FF4FA720023A6
S214400C20C847044642488421029A1346B847029E63
S214400C30DFF8FCA04FF0010808FA06F121405046C4
S214400C4089B200221346B8470136202EF4D14148D7
S214400C50414B9847A8E706A84649424B9847002884
S214400C6054D104A840493F4B984758B9304C204689
S214400C70802100221346B8472046412100221346D1
S214400C80B84748E004A83949364B984758B9284CE5
S214400C902046802100221346B84720468121002264
S214400CA01346B84737E0324804A92B4B98477BE7B2
S214400CB0DDE900014FF4FA720023C84704461C4899
S214400CC0842100221346B8470026DFF864A04FF080
S214400CD0010808FA06F12140504689B20022134620
S214400CE0B8470136202EF4D1234821461A4CA04757
S214400CF01848A047DDE90023003243F10103CDE95F
S214400D000023972B08BF002AD2D14DE71B4806A9DF
S214400D10114B984748E700220123CDE90023C7E757
S214400D202101400019024000A4534000D114400065
S214400D30008000407107400081074000D107400016
S214400D40F107400011084000250840003D084000DB
S214400D5099074000C453400091134000B913400027
S214400D6048544000E11440004C5440005054400069
S214400D7054544000745440007C5440009854400002
S214400D803C544000890D400073B96AB9002908BF39
S214400D900028BCBF00204FF00041C4BF6FF00041A8
S214400DA04FF0FF3000F03CB882B0EC462DE90050E2
S214400DB000F006F8DDF804E002B00CBC704700BF57
S214400DC02DE97043069E14461D468046894600F02F
S214400DD029F804FB01F300FB0533A4FB00451D4442
S214400DE0B8EB040469EB0505C6E90045BDE8708329
S214400DF02DE97043069E1446804689461D4600F0FF
S214400E005DF900FB05F504FB0153A0FB04451D44BA
S214400E10B8EB040469EB0505C6E90045BDE87083F8
S214400E20704700BF00292DE9F00FC0F29F800024D4
S214400E30002BC0F29680154606460F46002B3ED144
S214400E408A4257D9B2FA82F34BB1C3F1200201FA73
S214400E5003F720FA02F29D40174300FA03F6290CE6
S214400E60B7FBF1F2330C01FB127CA8B243EA0C4705
S214400E7000FB02F3BB4209D97F1902F1FF3C80F028
S214400E800181BB4240F2FE80023A2F44FF1AB7FB74
S214400E90F1F3B6B201FB137146EA014100FB03F0E1
S214400EA0884208D9491903F1FF3780F0ED8088421F
S214400EB040F2EA80023B43EA0242002303E08B42D0
S214400EC00AD900231A461046194614B1404261EB2F
S214400ED04101BDE8F00F7047B3FA83F8B8F1000F50
S214400EE040F084808B4202D3824200F2DE800023B0
S214400EF00122E8E712B90123B3FBF2F5B5FA85F211
S214400F00002A39D17F1B280C1FFA85FC0123B7FB2A
S214400F10F0F1320C00FB117742EA07470CFB01F276
S214400F20BA4207D97F1901F1FF3802D2BA4200F21D
S214400F30C1804146BF1AB7FBF0F2B6B200FB127052
S214400F4046EA00400CFB02FC844507D9401902F1F2
S214400F50FF3702D2844500F2AB803A4642EA01426D
S214400F60B1E7E443524263EB430364E7404261EB3C
S214400F7041014FF0FF345BE79540C2F1200327FA6A
S214400F8003F1280C26FA03F39740B1FBF0F81F4311
S214400F903B0C00FB18111FFA85FC43EA01410CFB91
S214400FA008F38B4206FA02F608D9491908F1FF32CF
S214400FB079D28B4277D9A8F102082944C91AB1FBE5
S214400FC0F0F3BFB200FB131147EA01470CFB03F2F4
S214400FD0BA4207D97F1903F1FF3160D2BA425ED9CF
S214400FE0023B2F44BF1A43EA084390E7C8F1200269
S214400FF003FA08FC25FA02F343EA0C0C4FEA1C49B4
S21440100021FA02F301FA08F720FA02F2B3FBF9F1EB
S214401010174309FB11333A0C1FFA8CFB42EA034391
S2144010200BFB01FA9A4505FA08F008D913EB0C03B6
S21440103001F1FF3235D29A4533D902396344CAEBBF
S2144010400303B3FBF9F209FB1233BFB247EA034787
S2144010500BFB02F9B94508D917EB0C0702F1FF3331
S2144010601BD2B94519D9023A674442EA0145A5FB65
S2144010700001C9EB07078F424FF000030AD305D0A3
S2144010802A4620E7624601E73B4614E706FA08F69A
S2144010908642F5D26A1E002315E71A46E5E70B4658
S2144010A0A0E71146CBE7904688E7434642460AE724
S2144010B0023A53E702392F443CE700BF2DE9F00FD0
S2144010C0144605460E46002B43D18A4253D9B2FAFF
S2144010D082F757B1C7F1200620FA06F601FA07F361
S2144010E002FA07F41E4300FA07F5210CB6FBF1F2AC
S2144010F02B0C01FB1267A0B243EA074600FB02F343
S214401100B34209D9361902F1FF3780F0F680B34270
S21440111040F2F380023A2644F61AB6FBF1F3ADB23B
S21440112001FB136145EA014100FB03F0884208D900
S214401130091903F1FF3680F0E280884240F2DF80F2
S214401140023B43EA0242002310461946BDE8F00F30
S21440115070478B424AD8B3FA83F6002E4DD18B4265
S21440116002D3824200F2D68000230122104619465E
S214401170BDE8F00F704712B90124B4FBF2F4B4FA9C
S21440118084F2002A7CD1091B260CA7B20123B1FBAE
S214401190F6F02A0C06FB101142EA014107FB00F26A
S2144011A08A4207D9091900F1FF3C02D28A4200F26E
S2144011B0C3806046891AB1FBF6F2ADB206FB121147
S2144011C045EA014507FB02F7AF4208D92C1902F160
S2144011D0FF3180F09680A74240F29380023A42EA7E
S2144011E0004210461946BDE8F00F704700231A46E5
S2144011F010461946BDE8F00F7047C6F1200522FAA2
S21440120005F4B3401C434FEA144821FA05F301FAAB
S21440121006F720FA05F5B3FBF8FC2F4308FB1C3312
S2144012203D0C1FFA84FA45EA03430AFB0CF999453C
S21440123002FA06FB04D91B190CF1FF326DD3944613
S214401240C9EB0303B3FBF8F508FB1533BFB247EA17
S21440125003470AFB05F8B84504D93F1905F1FF33A3
S21440126061D31D4645EA0C4CACFB0B23C8EB070785
S2144012709F424FF0000549D345D062462B4663E770
S2144012809440C2F1200321FA03FC260C20FA03F313
S21440129001FA02F5BCFBF6F843EA05010B0C06FB27
S2144012A018CCA7B243EA0C4C07FB08F3634500FA98
S2144012B002F509D91CEB040C08F1FF323AD263451B
S2144012C038D9A8F10208A444C3EB0C0CBCFBF6F3D7
S2144012D089B206FB13CC41EA0C4107FB03F28A4273
S2144012E007D9091903F1FF3022D28A4220D9023B9E
S2144012F02144891A43EA084349E73A460CE733460D
S2144013001FE70A466BE7B0409042B6D20CF1FF3278
S214401310002319E73346324616E799458FD9ACF194
S214401320020C23448CE7B8459BD9023D274499E7F5
S2144013300346DEE79046C7E7023821443AE700BF57
S21440134070B50F4E0F4D761BB61007D0043D0024E7
S214401350013455F8043F9847A642F9D10A4E0B4D42
S214401360761B04F069F9B61008D0043D0024013419
S21440137055F8043F9847A642F9D170BD70BD00BFEE
S21440138044564000445640004C56400044564000A8
S2144013900FB400B5074A83B004AB106853F8042B6B
S2144013A08168019300F016FA03B05DF804EB04B0D0
S2144013B0704700BF300400200FB400B5074A83B022
S2144013C004AB106853F8042B4168019301F068F8A9
S2144013D003B05DF804EB04B0704700BF3004002053
S2144013E0F0B4840743D0541E002A3ED0CDB2034604
S2144013F003E0621E002C38D0144603F8015B9A07BF
S214401400F7D1032C2AD9CDB245EA05250F2C45EA5B
S214401410054515D9A4F110073F0903F1100606EB60
S21440142007161A46156055609560D5601032B24270
S214401430F8D104F00F040137032C03EB07130DD942
S2144014401E462246043A032A46F8045BFAD8221F70
S21440145022F003020432134404F003042CB1C9B250
S2144014601C4403F8011BA342FBD1F0BC7047144652
S2144014700346C6E7F0B5044689B008460D4600F078
S2144014803DF9A368114F9A890495022100F1010E97
S214401490012604AD029191040590CDF80CE0069724
S2144014A00796019506D4596E42F4005221F4005135
S2144014B09A8159662046194601AA02F0DFF80028AC
S2144014C00CBF0A204FF0FF3009B0F0BDBC544000BE
S2144014D0024B01461868FFF7CDBF00BF300400201E
S2144014E040EA010C1CF0070F23D1BDF1100DCDE9E9
S2144014F00245CDE900676FF000064FF0000700BFD9
S214401500F0E80223F1E80245A24282FA46FCA7FA36
S21440151086FC08BFBCF1000F40F0D780AB4283FA90
S21440152046FCA7FA86FC08BFBCF1000F40F0CA8014
S214401530E6E710F0030C21D020F0030050F8042B0F
S2144015405FEACC7C08D00FD211F801CB5FFA92F359
S214401550B3EB0C0C10D17BB111F801CB5FFAA2F3C0
S214401560B3EB0C0C08D13BB111F801CB5FFAB2F3E8
S214401570B3EB0C0C00D10BB960467047BDF1100DB3
S214401580CDE90245CDE900676FF000064FF0000751
S21440159011F0030C2DD110F0040F0DD050F8042B91
S2144015A051F8044BA24282FA46FCA7FA86FC08BFD2
S2144015B0BCF1000F40F0898011F0040F9FD051F825
S2144015C0045B00BFF0E80223AA4282FA46FCA7FA70
S2144015D086FC08BFBCF1000F71D1F1E80245A3427A
S2144015E083FA46FCA7FA86FC08BFBCF1000F63D11D
S2144015F0E8E721F00301BCF1020F1ED03BDA51F8B8
S214401600045B00BF50F8043B4FEA152583FA46FCBE
S214401610A7FA86FCB7EB0C2F03EA162208BFAA42AD
S2144016204DD151F8045BBCF1000F82EA03034FEA48
S214401630056208BF93423CD1E4E751F8045B00BF23
S21440164050F8043B4FEA154583FA46FCA7FA86FC59
S214401650B7EB0C4F03EA164208BFAA422FD151F807
S214401660045BBCF1000F82EA03034FEA054208BF61
S21440167093421ED1E4E751F8045B00BF50F8043BA8
S2144016804FEA156583FA46FCA7FA86FCB7EB0C6F63
S21440169003EA166208BFAA4211D151F8045BBCF1B6
S2144016A0000F82EA03034FEA052208BF934200D1A7
S2144016B0E4E719BA12BA0AE019BA22BA07E011BA30
S2144016C02ABA04E019BA2ABA01E011BA22BA9CFA38
S2144016D08CF0DDE90067DDE902451DF1100D38B1FB
S2144016E0B0FA80F0C0F1180021FA00F122FA00F2B8
S2144016F00120914298BF8041704700BF20F003010F
S21440170010F00300C0F1000051F8043B00F1040C57
S2144017104FEACC0C6FF000021CBF22FA0CF21343C7
S2144017204FF0010C4CEA0C2C4CEA0C4CA3EB0C0290
S21440173022EA030212EACC1204BF51F8043B0430FA
S214401740F4D013F0FF0F1FBF013013F47F4F01306A
S21440175013F47F0F18BF0130704700BF4B6E2DE962
S214401760F0479C040E46804691462AD593681268F8
S21440177002F1080A1BB31AE9A000BF0817D0043DBF
S214401780002401E0A74210D0404655F8041F3246D8
S21440179001F032FD431C04F10104F3D10023C9F8E3
S2144017A00830C9F80430BDE8F087D9F80830A3EB14
S2144017B08703C9F808300AF1080A002BDBD100205D
S2144017C0ECE701F05BFF0023C9F80830C9F80430A5
S2144017D0BDE8F0872DE9F04FB1B01C460291904627
S2144017E00893069018B1836B002B00F0E880029DAA
S2144017F0AB899AB2900407D46A6E43F4005322F43D
S2144018000051AB819AB26966110740F1B780DDF8A6
S21440181008B0DBF81030002B00F0B08002F01A025F
S2144018200A2A00F0B78000230DF180090A93159329
S21440183014930993CDF84C904E4698F80030002B00
S21440184000F0C484252B00F0C18408F1010201E0B9
S214401850252B04D0144601322378002BF8D1C8EB50
S214401860040595B1149B159AC6F8008001332A44A6
S214401870072B7560159214937BDD002A40F0D484C4
S2144018800998149228444E4609902378002B00F07D
S214401890E98300214FF000024FF0FF3C63788DF85B
S2144018A0472004918A4604F101080846654608F137
S2144018B00108A3F12002582A00F2D582DFE812F090
S2144018C0C702D302D302CE02D302D302D302D3023C
S2144018D0D302D3027E028B02D30284008F02D3024D
S2144018E02B01940194019401940194019401940174
S2144018F094019401D302D302D302D302D302D3027B
S214401900D302D302D302D3023001D302D302D3028E
S214401910D302D302D302D302D302D302D302790135
S214401920D302D302D302D302D302A201D302D302FC
S214401930BD01D302D302D302D302D302D302D302D1
S214401940D302D302D302E201F801D302D302D30278
S2144019501402F801D302D3021902D30226028900E8
S21440196064027902D3023802D3021901D302D302A9
S214401970AB02083609982844099086E706980299EB
S21440198001F05AFAB0B9029DAA8902F01A020A2A50
S2144019907FF449AFDDF808B0BBF90E30002BFFF6F8
S2144019A042AF069859464246234600F03DFD31B0C8
S2144019B0BDE8F08F4FF0FF3031B0BDE8F08F01F05A
S2144019C085FB14E7404208934AF0040A98F8003032
S2144019D06DE71AF020030490AC4600F0F280DDF884
S2144019E020B00BF1070323F0070303F10804089423
S2144019F0D3E9004500234FF0000000218DF8470052
S214401A00CDF814C00791BCF1000FA8BF2AF0800A99
S214401A1054EA050240F0AD80BCF1000F40F0A980CA
S214401A20002B40F0BC831AF0010F00F0B88330AFB3
S214401A30302307F8413DC7EB09040594DDF814B0A0
S214401A40079CE345B8BFE346CDF80CB01CB10BF19C
S214401A50010BCDF80CB01AF00205079505D0DDF85D
S214401A600CB00BF1020BCDF80CB01AF084030B93BC
S214401A7040F01782049DDDF80CB0CBEB0504002C3B
S214401A8040F30F82102C40F38884BD4D159A14986D
S214401A902B464FF0100B25466446B4461E4606E0DD
S214401AA0831C0CF1080C0846103D102D11DD411C1E
S214401AB01032072915928CE840081491F0DD002A70
S214401AC040F0E281103D102D4FF001031046CC4609
S214401AD0EDDC31466646A4462C460D462244072B8E
S214401AE0159235607460149300F369830836591C68
S214401AF0DAE11AF0200F0490AC4600F08B80089D87
S214401B00EB1D23F0070303F1080BD3E90045CDF89E
S214401B1020B001236FE74AF0800A98F80030C6E606
S214401B204AF0100A1AF0200F0490AC468DF8471081
S214401B3000F0C680089CE11D21F00701D1E9002392
S214401B400831089114461D46002A73F10000C0F281
S214401B50CD83BCF1000F9DF847100791A8BF2AF02F
S214401B60800A54EA0502CDF814C04FF001033FF452
S214401B7053AF012B00F01583022B0DF17F0340F08D
S214401B8048820A981946220904F00F0442EA057270
S214401B900F462B09015D397052EA030B14461D4669
S214401BA007F1FF31EFD1CDE90E23C7EB09030593CB
S214401BB044E74AF0100A1AF020030490AC467FF43B
S214401BC00EAF1AF0100240F00F831AF0400300F0F8
S214401BD00B83DDF820B0BBF800400BF1040B134636
S214401BE00025CDF820B006E7A3F13002002018F813
S214401BF0013B00EB800002EB4000A3F13002092AD3
S214401C00F5D956E64AF0100A1AF0200F0490AC4672
S214401C107FF475AF1AF0100F40F0EC821AF0400FC8
S214401C2000F0E882DDF820B0BBF800400BF1040B72
S214401C3000250123CDF820B0DDE6AC461AF0200F93
S214401C40504D04908DF847100A9500F0EE80089DA0
S214401C50EA1D22F00702D2E9004502F1080BCDF852
S214401C6020B01AF0010F00F0A88254EA050B00F0ED
S214401C70A48230228DF849304AF0020A8DF8482076
S214401C800223B8E6089BDDF820B01B6804900124C8
S214401C904FF000050BF1040B03948DF847508DF878
S214401CA05830CDF820B0059416AF4FF0000CD2E671
S214401CB01AF0200F0490AC468DF847107FF43AAFE8
S214401CC01AF0100F40F0A4821AF0400F00F0A082E5
S214401CD0DDF820B0BBF900400BF1040BE5172246B7
S214401CE02B46CDF820B02FE74AF0400A98F800304F
S214401CF0DDE598F8003042466C2B03BF08F101083A
S214401D004AF0200A53784AF0100AD0E51AF0200F1D
S214401D108DF8471000F0F882089C2168099CE5176A
S214401D202B46089D224604350895C1E9002384E5E4
S214401D30089C04902768AC464FF000058DF8475045
S214401D400434002F00F03483BCF1000F3846C0F254
S214401D50088362460021CDF804C002F0D1F9DDF8D0
S214401D6004C0002800F03C83C01B6045A8BF604606
S214401D709DF847500590089407954FF0000C5DE697
S214401D8000554000C0544000089A049030238DF817
S214401D90483002F1040B7823AF488DF84930AC4602
S214401DA01468CDF820B04AF0020A00250A900223B3
S214401DB021E64AF0200A98F8003078E5DDF820B0B1
S214401DC0DBF8000000280BF10403FFF6FBAD089398
S214401DD098F800306BE598F800302B2167E598F8C6
S214401DE000302A2B08F1010400F00983A3F13002E9
S214401DF0092A98BF002500F2FE8214F8013B05EB45
S214401E00850502EB4505A3F13002092AF5D945EAD6
S214401E10E575A0464DE5904C04901AF0200FAC4670
S214401E200A948DF847107FF412AF1AF0100F40F066
S214401E30E9811AF0400F00F0E581DDF820B0BBF8EC
S214401E4000400BF1040B0025CDF820B009E798F8C8
S214401E50003000297FF42BAD202128E54AF0010A06
S214401E6098F8003023E504908DF84710002B00F0DA
S214401E70F98001254FF0000B03958DF858308DF80A
S214401E8047B0059516AF10E70698029913AAFFF7D4
S214401E9065FC002840F0ED801498159A431CCC460B
S214401EA002E6149B159A591C9DF8470068B101320A
S214401EB00DF14700012307291592149186E8090081
S214401EC000F360810B4608360131079C64B102324C
S214401ED012A8022307291592149186E8090000F3F8
S214401EE057810B46083601310B9D802D00F001814D
S214401EF0059DC5EB0C04002C2FDD102C574D22DD24
S214401F0030464FF0100B2E462546069C06E003F161
S214401F10020C08300B46103D102D10DD591C1032B7
S214401F200729159280E840081491F0DD002A63D115
S214401F30103D102D4FF0010C13464846EEDC2C4663
S214401F406146354606462244072915923560746038
S214401F50149100F3C18008360131059D37602A444C
S214401F60072915927560149140F3C180002A40F00D
S214401F70308114924E461AF0040F00F08B80049D78
S214401F80DDF80CB0CBEB0504002C40F38380102C1E
S214401F9040F322821499324DDDF818A0DDF808B0DF
S214401FA0102705E0881C08361946103C102C10DD1A
S214401FB04B1C1032072B159286E8A0001493F1DDD7
S214401FC0002A7DD1103C102C4FF0010011464E46A1
S214401FD0EEDC22440728159235607460149059DD73
S214401FE0002A4FD1099CDDF80CB0049DAB45ACBF30
S214401FF05C44641909945EE02046029913AAFFF7F0
S214402000ADFB002835D1149B159A03F1010C4846C8
S21440201081E7E00840EA457004F00702E9083032FC
S21440202050EA010B1F461A7004460D4603F1FF3373
S214402030EFD11AF0010FCDE90C01394600F0B98016
S214402040302A3FF4F8AC1F46C7EB09053023059508
S21440205001F8013CF2E400BFD4544000F054400084
S21440206000554000159B23B10698029913AAFFF726
S21440207075FB029CA3895B063FF59CAC099831B082
S214402080BDE8F08F0698029913AAFFF767FB002871
S214402090EFD1159A099CDDF80CB0049DAB45ACBF5A
S2144020A05C446419099432B10698029913AAFFF762
S2144020B055FB0028DDD1002014904E46FFF7BDBBEF
S2144020C05046594613AAFFF749FB0028D1D1149928
S2144020D0159A481C4E4668E7002A40F0FA80059C50
S2144020E02097012321941594224614934E46083691
S2144020F041E7049DDDF80CB0CBEB0504002C7FF7E0
S214402100F7AE102CA84D40F3748129464FF0100BC3
S21440211025466446B4460E4606E0981C0CF1080C6C
S2144021200B46103D102D0FDD591C10320729159215
S2144021308CE840081491F0DDBAB9103D102D4FF0F0
S21440214001001346CC46EFDC33466646A4462C4692
S2144021501D4622440728159235607460149000F39B
S214402160B2800836411C0346C2E60698029913AA76
S214402170FFF7F4FA00287FF47CAF149B159A581C9E
S214402180CC46CEE7002A7CD119464E4613469CE6FE
S214402190002A40F08780012113464E46A4E64F466B
S2144021A04CE4002D08BF0A2C49D230AF303407F833
S2144021B0414DC7EB0903059340E402231BE4002A84
S2144021C040F0B280134601214E466DE64446FFF786
S2144021D05CBB0698029913AAFFF7C0FA00287FF462
S2144021E048AF159A4E46C6E6089D2C6804350895B5
S2144021F0002500E4089D2C68043508950123002539
S214402200FFF7F9BB089D2C6804350895002528E59E
S214402210089DDDF820B02C680BF1040BE517CDF8CF
S21440222020B022462B468FE40698029913AAFFF761
S21440223095FA00287FF41DAF4E46FFF79BBB0DF185
S2144022407F0B03965E46E346204629460A22002335
S21440225003F092F830323270204629460A22002394
S21440226003F08AF804460D4654EA0500374606F160
S214402270FF36E9D1C7EB0903DC46039E0593FFF71B
S214402280DDBB06980299CDF804C013AAFFF766FA9C
S214402290DDF804C000287FF4ECAE149B159A591C58
S2144022A04E4612E606980299CDF804C013AAFFF7E8
S2144022B055FADDF804C000287FF4DBAE149B159A6F
S2144022C0591C4E4610E6002A56D1012113464E466A
S2144022D00EE60698029913AAFFF740FA00287FF404
S2144022E0C8AE1499159A01314E4636E64FF02D0B7E
S2144022F0644265EB45058DF847B0CDF81CB0CDF887
S21440230014C00123FFF77FBB1AF0100F1DD11AF03F
S214402310400F59D0089DDDF824B02B680435089549
S214402320A3F800B0FFF789BA06980299CDF804C022
S21440233013AAFFF713FADDF804C000287FF499AE1D
S214402340149B159A591C4E46AEE5DDF820B0099C04
S214402350DBF800300BF1040BCDF820B01C60FFF723
S2144023606CBA0894FFF7CAF99DF847400590079461
S2144023704FF0000CFFF762BB06980299CDF804C0F8
S21440238013AAFFF7EBF9DDF804C000287FF471AE1E
S214402390149B159A591C4E46AAE5149B159A034D54
S2144023A00133FFF79BBB00BFF05440000055400090
S2144023B0BCF1060F34BF63460623089423EAE37451
S2144023C005930394164F70E4089C099D23680434D3
S2144023D008941D60FFF731BA1498124D0130F8E5A5
S2144023E09DF84750CDF814C0079508948446FFF7EB
S2144023F025BB0846ADE6A0460025FFF75ABADDF8ED
S21440240020B098F80130DBF800500BF10402002DA4
S2144024100892A046BFF64BAA4FF0FF35FFF747BAE3
S214402420E8544000005540002DE9F0430C46ADF21C
S2144024306C4DB1F80C90E769496EB4F80E8019916E
S2144024401AAD4FF480664FF0000E079729F0020948
S214402450676A00956946049502960596ADF80C9015
S214402460ADF80E800997CDF818E00646FFF7B2F9AA
S214402470051E07DB3046694600F0FAFD002818BF07
S2144024804FF0FF35BDF80C305B0603D5A38943F00B
S2144024904003A38128460DF26C4DBDE8F08300BF93
S2144024A02DE9F04F0C468989DDB08F0483460793AB
S2144024B006D4636E41F4005123F40053A181636651
S2144024C09046002618F8013B0696099635460A9629
S2144024D08F4F0F932BB33968C818407800F0080028
S2144024E000F0FF0908B363680CE023683A6819787F
S2144024F00A440133527816070CD562682360531E8F
S21440250001356360002BF0DC5846214602F02EF978
S2144025100028EAD04246904618F8013B0F93002B1D
S214402520D9D10A985DB0BDE8F08F252B40F0898060
S21440253053784E4608F10102782B00F2A581DFE879
S21440254013F07900A301A301A301A301A301A301F2
S214402550A301A301A301A301A301A301A301A30116
S214402560A301A301A301A301A301A301A301A30106
S214402570A301A301A301A301A301A301A301A301F6
S214402580A301A301A301A301A301A3017E00A3010C
S214402590A301A301A3017901A301A301A301A30100
S2144025A0A3016F016F016F016F016F016F016F0132
S2144025B06F016F016F01A301A301A301A301A30152
S2144025C0A301A301A301A301A3016B01A301A301DE
S2144025D0A301A301A301A301A3016501A301A301D4
S2144025E06101A301A301A301A301A301A301A301C8
S2144025F0A3015701A301A3014C01A301A301A30119
S214402600A301A301A301A30146013E01A301A30127
S214402610A30138013001A301A3012701A3010D0145
S21440262005011D01A301A301EB00A3019300A30133
S214402630A30157014FF0FF305DB0BDE8F08F059223
S21440264090466368002B40F34383236818F8012CB8
S214402650197891427FF465AF62680133013A62604F
S21440266023600135424656E705922A4906910A22DA
S21440267009924FF003086368002B53DD19F0400FB2
S21440268034D0B8F1020F00F0F081B8F1030F00F03B
S2144026903A81B8F1010F00F00681002E08BF0126EE
S2144026A019F0010840F0658219F0100F09D1F7E2E1
S2144026B01A4422609844F61A02F058F8002840F06F
S2144026C0E88263682268B34258462146F0DB9B1B8B
S2144026D032446360B04422604544DDF8148042468C
S2144026E019E75846214602F041F808BB3968236886
S2144026F000E023601A780A44013352781007C0D5A8
S2144027006268013A002A05F101056260F1DCE8E7FB
S21440271034040020494C400063680592002B4FF07B
S2144027200208ABDC5846214602F020F80028A5D027
S2144027300A9E002E3FF47EAFA389304613F0400F2A
S21440274018BF4FF0FF305DB0BDE8F08F05928F4B5D
S2144027500693082009904FF003088CE719F0100FF5
S214402760059240F08D8019F0040F00F0CC82079E51
S2144027703368043690461D800796CBE6059283491B
S2144027800691102249F4087909924FF0030872E73F
S21440279098F801306C2B00F0AF8249F00109904662
S2144027A0C8E6059200237A4A069209934FF003083A
S2144027B061E798F8013049F004099046BAE6059278
S2144027C0734906910A2209924FF0030853E705928F
S2144027D049F040094FF000084DE711461CA8059205
S2144027E002F060F849F0400905904FF0010842E7D2
S2144027F0664B0592102049F40079069309904FF0F5
S214402800030838E7059249F00109A0E798F8013037
S21440281049F0020990468DE6059249F00109CFE756
S21440282006EB860603EB4603A3F1300698F8013024
S21440283090467FE698F8013049F01009904679E6D0
S21440284010A8002108220B90FEF7CAFD19F0100AC6
S21440285000F009820DF13C090022904622683B6850
S214402860127813445B781B0702D4002E40F07E8219
S214402870BAF1000F04D1C9F800A00A9E01360A96A4
S214402880DDF81480424646E60B4405925B7803F03A
S2144028900303012B00F02D823D4806900A21099142
S2144028A04FF00308E7E6002E08BF4FF0FF3619F05A
S2144028B0100F00F0308123684FF000080DF17009CA
S2144028C01A7819F802200133C2B16268236008F111
S2144028D00108013A464562603FF4FEAE002AEFDC4E
S2144028E05846214601F042FF00287FF4F5AE2368A3
S2144028F01A7819F802200133002AE6D1B8F1000F01
S2144029007FF4EAAE0DE6731E262B8CBFA6F1270396
S21440291000230DF1480A4FF00000AC4688BF27263A
S214402920099D089049F45869D04609932068017873
S214402930A1F12B024D2A44D8DFE802F0914391439F
S2144029404366606060606060608B8B434343434394
S21440295043435B5B5B5B5B5B434343434343434372
S2144029604343434343434343432C43434343434309
S21440297043435B5B5B5B5B5B434343434343434352
S2144029804343434343434343432C00BF494C4000E7
S2144029909949400009F4C062B2F5007F11D129F48C
S2144029A0007949F4A0691025626888F80010013A59
S2144029B0002A08F10108626040DD01302060013ED7
S2144029C0B4D119F4807F0995654605D0D04500F20C
S2144029D08781D0453FF4A5AD19F0100600F015816B
S2144029E0089ECAEB0803DDF8148033441D44424673
S2144029F091E50A2DE5DD29F43869D5E7A74A29F49B
S214402A00386932F91550CFE719F4006FCCD015B9B4
S214402A1049F40079082519F4806F40F00A81099A34
S214402A2029F4607912B1013A099201366268089B2E
S214402A30013A0133002A08936260BEDC58462146BC
S214402A40CDF810C001F092FEDDF810C00028B6D0D8
S214402A50B7E7924B33F91550082DCCDCB1E719F0A7
S214402A60800FAED029F080099EE7002E08BF4FF0B9
S214402A70FF3619F001087FF4E3AE19F0100F35D198
S214402A800798D0F8008000F10409C24623683A68E7
S214402A9019780A44591C5278120711D4626821608A
S214402AA0013A62601B780AF8013B013E08D0636831
S214402AB0002BEBDC5846214601F058FE0028E5D0B6
S214402AC0C8EB0A080A9ECDF81C904544DDF81480F1
S214402AD0002301360A968AF8003042461BE55846DF
S214402AE0214601F043FE00287FF4F6AD396823689E
S214402AF01A780A440133527810073FF5EDAD626804
S214402B00236008F10108013A464562603FF4E4ADAF
S214402B10002AEDDCE3E70798D0F80080021D079214
S214402B20C2460DF1700923681A7819F80220591C1C
S214402B30A2B162682160013A62601B780AF8013BE4
S214402B40013E0BD06368002BEDDC5846214601F071
S214402B500DFE0028E7D0D0453FF4EAADBAEB0808B2
S214402B603FF4DFAC0A9E002301360A968AF800300E
S214402B70B2E510AA0B92104600210822FEF730FC60
S214402B8019F010030D9374D04FF000094FF0000A6F
S214402B9008950D9DCDF830B00DF14808D34600F0AD
S214402BA059FF58453FF4C4AD2368616813F801EBFC
S214402BB00B98236001390BF1010A0090534661607F
S214402BC00C9808F80BE04946424601F055FA411C7D
S214402BD03FF4AEAD002855D10DB9C9F8005008995C
S214402BE051440891013E002D50D109F10409AB46ED
S214402BF06368002B29DD002ED1D1089DDDF830B06A
S214402C000D9E002E3FF439AE3AE6324688F8006014
S214402C1058465146099B069EB04719F0200F0BD0E8
S214402C20079E33680436079618600A9E01360A9651
S214402C30D6E629F4B069B7E619F0040F7ED0079EB1
S214402C403368043607961880EFE70C98214601F063
S214402C508DFD0028CFD0DA46089DDDF830B0BAF1B9
S214402C60000FCDD064E50799D1F800900431079164
S214402C70F2E5DDF81CE0DEF800900EF1040ECDF82B
S214402C801CE083E70230AAD1D346B1E74FF0000BF1
S214402C90AEE7B8F1000F7FF41FAD49E51055400090
S214402CA0DDF81CE03346DEF800100094584601225A
S214402CB000F000FB079E331D00283FF439AD0A9E06
S214402CC0DDF814800793013605440A96424622E40E
S214402CD05846214601F04AFD00283FF4B6AC27E5A9
S214402CE018F8011C5846224602F042F908F1FF380F
S214402CF06FE649F00109CFE598F8023049F002093D
S214402D0008F1020816E419F0010F0ED119F0020F6F
S214402D100BD0079EDDF8148031682A46EB17043640
S214402D200796C1E90023FFF7F5BB079EDDF8148040
S214402D30336804361D600796FFF7ECBB19F00102B6
S214402D407FF46EAF19F0020F3FF46AAF394B069E20
S214402D509E4258465146099B65D001F0A7FE079E05
S214402D60336804360796C3E900015EE700F072FE5A
S214402D7040453FF4DDAC2368616813F8012B2360BF
S214402D800DF1480E08F1010C0B9B00930139616070
S214402D900EF808206346724658464946CDF810C09D
S214402DA001F06AF9421CDDF810C03FF4C1AC98B19E
S214402DB0023008BFE04639D16368002B3FF74EAD7E
S214402DC05846214601F0D2FC00283FF447AD424623
S214402DD0002A7FF4ADAC4BE5C9F80000CDF810C032
S214402DE000F026FEDDF810C090B1E046BCF1000FC2
S214402DF03FF43EAD12AE664408F1FF38584616F82A
S214402E00011D224602F0B4F8B8F1000FF4D12FE5C8
S214402E106544013EBAF1000F03D109F10409D046DA
S214402E20CAE78046C8E701F09FFF98E7D9F8000058
S214402E30D4E700BF494C40002F4B1B6870B5064690
S214402E400C4613B19A6B002A36D0A589ABB2190747
S214402E500CD52269AAB113F001011ED06369002186
S214402E605B42A361A160F2B1002070BDDA063BD59B
S214402E705B0725D4226945F00803A3819BB2002A4C
S214402E80E9D103F42071B1F5007FE4D03046214605
S214402E9000F0E6FDA3892269DDE7980758BF61691F
S214402EA0A160002AE0D1A3891A06DDD543F040038D
S214402EB0A3814FF0FF3070BD184600F007F9C4E715
S214402EC0216B49B104F14003994203D0304600F0EB
S214402ED007FBA5890023236325F0240500232269E8
S214402EE06360ADB22260C6E745F040050923336013
S214402EF04FF0FF30A58170BD30040020024B13B167
S214402F00024800F005B8704700000000C931400094
S214402F10014600200246034602F032B98B899AB237
S214402F202DE9F0410D46110780463CD46A6843F4CB
S214402F300063002AAB8159DDAC6A002C4BD09BB2B3
S214402F4003F48052002192B2D8F80060C8F800100E
S214402F50002A4FD02A6D5F0705D569682B6B521A39
S214402F600BB1EB6BD21A4046E9690023A047441CDC
S214402F704AD0AA892B692B6022F400639BB20022B8
S214402F806A60DA04AB814CD4296BC8F8006011B390
S214402F9005F14003994202D0404600F0A1FA0020D5
S214402FA02863BDE8F0812E69AEB12C682E6091078B
S214402FB00CBF6B690023A41BAB600AE03246234675
S214402FC06F6AE9694046B8470028C0EB04040644E7
S214402FD004DD002CF2DC0020BDE8F081AB8943F034
S214402FE04003AB814FF0FF30BDE8F081EA6B002A2A
S214402FF0A2DCF0E701234046E969A047431C0246AD
S2144030001ED0AB89AC6AA6E7D8F800305BB9A98970
S2144030106B6021F400639BB22A69AB81DB042A60B3
S214403020B2D52865B0E71D2B01D0162B19D1AA8939
S2144030302B692B6022F400620023AA816B60A3E711
S214403040D8F80030002BDCD01D2B07D0162B05D02F
S214403050AB8943F04003AB81BDE8F081C8F800601F
S214403060B9E7AB8943F04003AB81BDE8F08100BFD0
S21440307010B5044682B008B1836B53B1B1F90C0069
S21440308008B902B010BD204602B0BDE81040FFF7B8
S21440309045BF019100F01AF80199EFE720B1054BC2
S2144030A001461868FFF7E4BF034B0449186800F070
S2144030B097BC00BF30040020B85440007130400038
S2144030C0014900F067BC00BFCD5240002DE9F04FEB
S2144030D0846B83B00746002C65D145683348F86357
S2144030E00423032107F53B72C7F8E412C7F8E82229
S2144030F0C7F8E04205F15C00AB812C606C60AC60C8
S2144031006C66EC812C616C61AC6121460822FEF74E
S21440311067F9BE68DFF898B0DFF898A0DFF89890B7
S214403120DFF89880ED6101230922C5F820B0C5F884
S21440313024A0C5F82890C5F82C802146F381B2819A
S21440314034607460B460746634617461B46108223B
S21440315006F15C000193FEF743F9FD68F661122024
S2144031600222C6F820B0C6F824A0C6F82890C6F8B2
S2144031702C802146A881EA812C606C60AC606C662D
S2144031802C616C61AC6105F15C000822FEF728F901
S214403190019BED61C5F820B0C5F824A0C5F828907D
S2144031A0C5F82C80BB6303B0BDE8F08FC13040004B
S2144031B01549400039494000714940009149400056
S2144031C0704700BF704700BF38B5094D094C641BB7
S2144031D0A41018BF05EB840505D0013C55F8043D06
S2144031E09847002CF9D1BDE8384002F02FBA00BF0E
S2144031F0585640005C5640002DE9F04193890F46F2
S214403200990482B01446804606D4526E43F4005366
S21440321042F40052A381626600F01CFC01283DD0B7
S2144032203A46404601A904F15C0301F05FFF421CA8
S21440323006462CD0002839D09DF80410002509E019
S214403240236819702368013323600135B5422DD2B7
S21440325001ABE95CA368013B002BA360F0DAA269EE
S214403260934205DB23681970236819780A29EAD146
S2144032704046224601F0E6FEB0F1FF335842584140
S2144032800028E2D04FF0FF3002B0BDE8F081A389BD
S21440329043F04003A38102B0BDE8F0817B1EFE2BC5
S2144032A0BED8F9B206468DF80410C7E7384602B0D5
S2144032B0BDE8F0812DE9F04F85B002FB03F590465E
S2144032C0019389460446DDF838B0002D46D018B143
S2144032D0826B002A00F0A780BBF80C2091B28804CD
S2144032E00AD4DBF8641042F4005221F40050ABF8E4
S2144032F00C2091B2CBF86400DBF80470002F38DB6A
S2144033008B07BA463CD4AA4610E000F041FFDBF8F3
S21440331000203A44CBF8002020465946B944C7EB33
S2144033200A0A01F023FAE8B9DBF80470BA453A46CF
S2144033304846DBF80010E8D8524600F029FFDBF894
S2144033400410DBF800200198CAEB01015244CBF888
S2144033500410CBF8002005B0BDE8F08F284605B035
S214403360BDE8F08FCAEB0505B5FBF8F005B0BDE843
S214403370F08F00228B079246CBF804201746C2D522
S214403380AA4528BFAA465246DBF80010484600F039
S214403390FFFEDBF80070DBF80420DBF83010574403
S2144033A0CAEB02020297CBF8007009EB0A06CBF88C
S2144033B00420CAEB050700293ED0002F3ED00BF173
S2144033C04000814205D0204600F08AF8DBF8003005
S2144033D002930021CBF83010DBF810300393DBF873
S2144033E014A04FF0000900E047B3CBF81060CBF8CC
S2144033F01470CBF800605946204601F0B7F9DBF868
S2144034000410039BCBF81030029BCBF814A0CBF8EB
S21440341000307F1A0E44CBF804900028E4D0ED1B11
S214403420B5FBF8F097E7FFF751FEBBF80C2091B2DA
S21440343088043FF561AF54E7002FCDD1019805B021
S214403440BDE8F08FF8B5234D0F46044600F09AFFCE
S214403450AB685E6826F00306F11B01F6EF7121F4B7
S2144034607F6121F00F01A1F58057B7F5805F07DB3C
S2144034702046002101F004FAAB683344984204D059
S214403480204600F081FF0020F8BD2046794201F03A
S214403490F7F901300DD0104BAA681968F61B46F0B4
S2144034A001062046C91B5660196000F06DFF0120DA
S2144034B0F8BD2046002101F0E3F9AB68C21A0F2A96
S2144034C0DEDD064D04492D6842F00102401B5A607D
S2144034D00860D5E75C040020140900206808002036
S2144034E02DE9F0410D460646002955D000F04AFF2A
S2144034F055F8041CDFF874C121F00103A5F1080457
S214403500E218DCF808005768904227F0030769D0B5
S21440351011F00101576032D00021D0194068C00731
S21440352006D43B44906800294ED0D268C260906072
S21440353043F001026260E350E1B9B3F5007F2DD35A
S2144035405A0A042A6AD89809383041000CEB810C94
S2144035504649DCF80820624566D0516821F00301F0
S2144035608B4202D292689445F7D1D368E360A2605A
S2144035709C60D4603046BDE8F04100F005BF55F889
S214403580085C641B0CF10808A06840452B4443D0F7
S214403590E568C560A860C0E7BDE8F081DB080CEBD5
S2144035A0C3020125DCF804009168A1609B1005FA6F
S2144035B003F31843E260CCF8040094603046CC60D5
S2144035C0BDE8F04100F0E0BE294DA842ADD143F041
S2144035D00102CCF81440CCF81040E060A060626075
S2144035E0E350C7E71F44CB0707D455F8083CE41A16
S2144035F01F44A268E368D3609A601E4B1B6847F07E
S21440360001029F426260CCF80840B3D31A4B304662
S2144036101968FFF717FFADE701217EE7142A0CD89B
S21440362002F15B00410091E74B688010012505FAE6
S21440363000F003434B60134698E7542A03D8180B10
S2144036406E30410082E7B2F5AA7F03D8D80B7730B8
S21440365041007BE740F254518A4203D8980C7C30B4
S214403660410073E7FC217E2070E700BF5C04002029
S2144036706404002064080020100900202DE9F04F63
S214403680936883B0164681460C462BB38B89190740
S21440369026D5226922B303F0020292B23568002A88
S2144036A02CD04FF0000ADFF8E8B2D046D84534BFF9
S2144036B043465B4652464846B8F1000F4FD0E16954
S2144036C0676AB847002856DDB3681B1A8244C0EBC9
S2144036D00808B360002BE9D1002003B0BDE8F08FA6
S2144036E048462146FFF7A8FB002840F04881A389BA
S2144036F0356803F0020292B2002AD2D113F0010AD2
S21440370042D1D046B8F1000F23D09A05A76876D5A7
S214403710B845C0F0A48013F4906F40F0B2802068A3
S214403720BB4651465A4600F0CDFDA2682168D21BE2
S21440373001EB0B03A26023604246B3689B1A924497
S214403740C2EB0808B360002BC6D0A389B8F1000FBF
S214403750DBD1D5F800A0D5F804800835D2E7D5F8F7
S21440376000A0D5F804800835A0E748462146FFF774
S2144037707FFC002859D0A38943F040034FF0FF3028
S214403780A38103B0BDE8F08F9246019293469046DF
S214403790B8F1000F2BD0019F002F64D0206821691C
S2144037A0D4F808C06269C24534BF5346434688428F
S2144037B01F4603D99444634500F3AE80934236DBFC
S2144037C01346676AE16948465A46B847071ED2DD3F
S2144037D0BAEB070A3AD0B368DB1BBB44C7EB080812
S2144037E0B360002B3FF478AFB8F1000FD3D1002779
S2144037F0D5F800B0D5F8048001970835C8E72068AA
S2144038002369984202D86369984572D2B84538BF52
S21440381047463A46514600F055FDA3682268DB1BF2
S2144038203A44A3602260002B9FD03A4685E71A466A
S2144038305946009300F046FD009BA1682268C91ACD
S214403840BAEB070A1344A1602360C4D14846214618
S214403850FFF70EFC00288ED1CDF804A0BBE7206809
S2144038604746C3465DE758460A21424600F048FCB4
S21440387000287FD000F1010A0127CBEB0A0A019706
S2144038808CE7226821696769C1EB020C07EB4707A2
S2144038900CF1010207EBD77742447F10974234BFC2
S2144038A017463A465B054FD511464846CDF800C008
S2144038B000F046F9DDF800C08346002862D0624634
S2144038C02169CDF800C000F063FCA289DDF800C095
S2144038D022F4906242F08002A2810BEB0C00CCEB0B
S2144038E00702C4F810B067612060A2604746C3462E
S2144038F017E76FF00042904538BF424692FBF3F21E
S21440390002FB03F3676AE16948465246B847002817
S2144039107FF731AF024610E762465946CDF800C001
S21440392000F0D0FCDDF800C02368634423604846BE
S2144039302146CDF800C0FFF79BFBDDF800C000280D
S2144039407FF419AF674643E74846CDF800C000F01D
S2144039501DFDDDF800C083460028BED148462169DB
S214403960FFF7BEFDA3890C2223F080039BB2C9F863
S214403970002001E7012708F1010A01970EE74FF002
S214403980FF30AAE60C23C9F80030A389F4E600BF4E
S21440399000FCFF7F2DE9F04110F5387788461AD0B5
S2144039A000267D68BC68013D0FD4A389012B05F134
S2144039B0FF3506D9B4F90E300133204601D0C04752
S2144039C006436B1C04F16804EFD13F68002FE8D132
S2144039D03046BDE8F0813E463046BDE8F08100BF47
S2144039E02DE9F84310F53876804689461BD00027E7
S2144039F07568B468013D10D4A389012B05F1FF35E5
S214403A0007D9B4F90E3001332146404601D0C847A5
S214403A1007436B1C04F16804EED13668002EE7D1EC
S214403A203846BDE8F88337463846BDE8F88300BFD9
S214403A30FF2807D8044B1B681844407800F008005D
S214403A40C0B27047002070473404002000487047DA
S214403A5038040020014B1868704700BF5804002007
S214403A60F0B58B899AB2960791B00C46054637D486
S214403A70B1F90E10002917DB01AA01F02FFC00282F
S214403A8010DB029B03F47043B3F500514F424F41A5
S214403A90B3F5004F2CD0A38943F40063A3814FF4C1
S214403AA080660BE0A3899AB212F0800F43F400635D
S214403AB0A38114BF40264FF480660027284631462F
S214403AC000F03EF8A389002829D01B4AEA6343F059
S214403AD08003A381206020616661A7B911B0F0BD64
S214403AE001F1430301220B600B614A6111B0F0BD46
S214403AF0124AA36A9342CED1A3894FF480663343D9
S214403B00A381E664DAE72846B4F90E1001F0FAFB22
S214403B100028E3D0A38943F00103A381DEE79A059A
S214403B20DCD404F1430243F002030121A381226066
S214403B3022616161D2E700BFC13040007149400058
S214403B402DE9F04F01F10B05162D83B0064627D917
S214403B5035F0070527D4A94225D8304600F012FC98
S214403B60B5F5FC7F26D2C14F4FEAD50C07EBCC0308
S214403B70DC689C4200F0D2816368E268A16823F06A
S214403B800303234430465D68CA6045F001059160F2
S214403B905D6000F0F9FB0834204603B0BDE8F08FC6
S214403BA01025A942D9D900240C232046336003B0FF
S214403BB0BDE8F08F5FEA552C00F08A80BCF1040F18
S214403BC000F260814FEA951C0CF1380C4FEA4C012C
S214403BD0A64F07EB8101CC68A14205D10CE0002B33
S214403BE07ADAE468A14207D0626822F00302531BE7
S214403BF00F2BF4DD0CF1FF3C0CF1010C9B4B3C69A8
S214403C0003F1080E744500F07E81616821F00301DF
S214403C104A1B0F2A00F36481002AC3F814E0C3F855
S214403C2010E06ADAB1F5007F80F03A81C90803EB0C
S214403C30C1004FEAA1085A688168A1604FF00109A7
S214403C4009FA08F848EA0202E0605A608460CC60EC
S214403C504FEAAC030120984090425BD8024206D11E
S214403C602CF0030C400002420CF1040CFAD007EB97
S214403C70CC084446E146E3689C4207D145E1002A29
S214403C8080F25681DB689C4200F03F81596821F003
S214403C9003014A1B0F2AF2DD1C46D3F80CC054F829
S214403CA0088F591945F0010942F00105C3F8049000
S214403CB03046C8F80CC0CCF8088079613961C1F844
S214403CC00CE0C1F808E04D608A5000F05DFB63E709
S214403CD07E214FF03F0C7BE72244E3685068A168A2
S214403CE040F00105CB6030469960556000F04CFBD3
S214403CF00834204603B0BDE8F08F214430464B6878
S214403D0043F001034B6000F03FFB0834204603B00D
S214403D10BDE8F08FBC68636823F00309A94504D367
S214403D20C5EB09030F2B00F39180514B514A19689C
S214403D301368013305EB010A04EB090B00F06181BF
S214403D400AF5805A0AF10F0A2AF47F6A2AF00F0A07
S214403D5030465146019200F093FDB0F1FF3F804659
S214403D60019A00F00081834500F2FA80DFF810C126
S214403D70DCF80030C3455344CCF8003000F04A81AC
S214403D8012683C4901321BBFCBEB080B5B44C1F8C1
S214403D900080CCF8003018F0070300F01381C3F120
S214403DA00802C3F5805390440833C244CAF30B0A52
S214403DB0CAEB030A51463046CDF804C000F060FD19
S214403DC0431CDDF804C000F03581C8EB00025244C5
S214403DD042F00102DCF80030C7F808805344BC4289
S214403DE0C8F80420CCF80030DFF894A015D0B9F11C
S214403DF00F0F40F2EA806168A9F10C0222F0070238
S214403E0001F0010EA118052042EA0E0E0F2AC4F852
S214403E1004E04860886000F21181174ABC68116867
S214403E208B4288BF1360154A11688B4288BF136067
S214403E30626822F003029542C5EB020301D80F2BBD
S214403E4004DC304600F0A0FA0024A5E6621943F0F0
S214403E50010345F0010565603046BA60536000F0E6
S214403E6093FA0834204603B0BDE8F08F5C04002087
S214403E7010090020680800200C09002008090020CE
S214403E8014090020BCF1140F61D9BCF1540F00F2A4
S214403E908F804FEA153C0CF16E0C4FEA4C0197E6CA
S214403EA04B0A042B58D9142B00F2AE8003F15B0268
S214403EB0500007EB8000DFF8BC818368834200F047
S214403EC08A805A6822F00302914202D29B68984246
S214403ED0F7D1D9687A68E160A3608C60DC60B7E6A9
S214403EE0611942F0010745F00105656030465961A9
S214403EF01961C1F80CE0C1F808E04F608A500834F8
S214403F0000F042FA48E65A68A2E609F1010919F0BB
S214403F10030F04F108047FF4AEAE2DE004F108036D
S214403F206469A34208BF0CF1020C3FF467AE23E677
S214403F3019441C464868DB6854F8082F40F00105D1
S214403F404D603046D3609A6000F01EFA24E60CF1CD
S214403F505B0C4FEA4C013BE68A0938325000A8E732
S214403F60BC423FF403AFBC68626822F0030262E7DB
S214403F70D8F8008098457BD11CF0030FA8F10803C1
S214403F800CF1FF3CF4D17B6823EA00037B604000E1
S214403F9098423FF6BFAE00283FF4BCAE0342CC4644
S214403FA07FF465AE400003420CF1040CFAD05EE6A6
S214403FB0BCF5AA7F1AD84FEAD53C0CF1770C4FEAED
S214403FC04C0105E64FF48053EFE60123C8F8043071
S214403FD0444600222FE791100120D8F8042000FA2A
S214403FE001F10A43C8F80420194674E740F25453D6
S214403FF09C451BD84FEA954C0CF17C0C4FEA4C0183
S214404000E6E50AF1100AA3E6542B1FD80A0B6E32D7
S21440401050004EE7CBF30B0100297FF4B1AE0AEB1C
S2144040200901BA6841F001015160F6E6FC214FF003
S2144040307E0CCDE501224FF0000ACBE604F10801E4
S2144040403046FFF74DFADAF80030E6E6B3F5AA7FD9
S21440405003D8CA0B773250002BE740F254529342B3
S21440406003D88A0C7C32500023E7FC207E2220E7CF
S2144040707B688CE75C0400202DE9F04383B01F4644
S2144040801446054688460A9E104B9AB1D3F80090CF
S214404090FFF7DCFC41468DE8410022463B46284679
S2144040A0C847431C03D100228A2332602B6003B0EA
S2144040B0BDE8F0831F68FFF7C9FC21468DE8410044
S2144040C0034A28460123B847EBE700BF6C080020A8
S2144040D03854400082B049B15AB16BB113780B6086
S2144040E01078003018BF012002B0704701A9002A9E
S2144040F0F3D1104602B070476FF00100F4E700BFFE
S214404100830770B4C9B23FD0541E2AB303788B429B
S21440411023D0431C04E0FCB104788C421DD01446E6
S21440412013F0030F184604F1FF3203F10103F2D1F6
S214404130032C14D8651E4CB303788B420DD0421C1A
S214404140002302E004788C4207D0AB42104603F1CD
S214404150010302F10102F5D1002070BC704741EA2C
S2144041600126034646EA064618460433026872406D
S214404170A2F1013525EA020212F0803FDAD1043C72
S214404180032C1846F0D8D5E71446D1E72046E4E796
S214404190844641EA000313F003036DD1403A41D30D
S2144041A051F8043B40F8043B51F8043B40F8043BCC
S2144041B051F8043B40F8043B51F8043B40F8043BBC
S2144041C051F8043B40F8043B51F8043B40F8043BAC
S2144041D051F8043B40F8043B51F8043B40F8043B9C
S2144041E051F8043B40F8043B51F8043B40F8043B8C
S2144041F051F8043B40F8043B51F8043B40F8043B7C
S21440420051F8043B40F8043B51F8043B40F8043B6B
S21440421051F8043B40F8043B51F8043B40F8043B5B
S214404220403ABDD2303211D351F8043B40F8043BFB
S21440423051F8043B40F8043B51F8043B40F8043B3B
S21440424051F8043B40F8043B103AEDD20C3205D30B
S21440425051F8043B40F8043B043AF9D2043208D003
S214404260D2071CBF11F8013B00F8013B01D30B8875
S21440427003806046704700BF082A13D38B078DD053
S21440428010F003038AD0C3F10403D21ADB071CBF25
S21440429011F8013B00F8013B80D331F8023B20F88F
S2144042A0023B7BE7043AD9D3013A11F8013B00F8C8
S2144042B0013BF9D20B7803704B7843708B78837050
S2144042C0604670478842F0B410D98C18A0420DD290
S2144042D08518531E42B121462A4611F8014D02F870
S2144042E0014D013B5C1CF8D1F0BC70470F2A3FD90A
S2144042F040EA01039B073FD1A2F110073F0900EBBC
S214404300071610360C46034625681D6065685D60D6
S214404310A5689D60E568DD601033B34204F1100483
S214404320F2D17B1C02F00F0C1B01BCF1030F1944A9
S214404330034423D90E461D466446043C56F8047B87
S21440434045F8047B032CF8D8ACF1040424F00304AD
S214404350043402F0030223442144002AC4D01A4401
S21440436011F8014B03F8014B9342F9D1F0BC70476A
S2144043700346002AF3D1B7E70346F0E76246002A31
S214404380EDD1B1E7704700BF704700BF2DE9F04F51
S2144043900C4683B090468146002900F0E280FFF745
S2144043A0F1FF08F10B0654F8043C162E23F00305E3
S2144043B0A4F108074BD810210E46B0454CD88D4284
S2144043C078DADFF890B3DBF808E07819864500F035
S2144043D0CE80426822F0010C8444DCF804C01CF015
S2144043E0010F7AD000221046DB0700F1928054F885
S2144043F0083CC3EB070ADAF8043023F003032B44E7
S21440440088B3704500F0ED8002EB030E8E452ADB44
S214404410C36882685746D3609A6057F8081FDAF830
S2144044200C30CB602A1F242A996000F22681132A7A
S21440443040F2B3802368CAF808306368CAF80C3084
S2144044401B2A00F2308108340AF11003A6E026F059
S2144044500706002E3146B0DA0C230020C9F800309B
S21440446003B0BDE8F08F8B4253DB5746DAF80C10AA
S21440447057F8080F2A1F242AC160886000F2098175
S214404480132A40F204812168CAF808106168CAF805
S2144044900C101B2A00F21C8108340AF11002216815
S2144044A0116061685160A16891601D46DAF8043079
S2144044B03C465746AA1B0F2A03F0010319D82B4344
S2144044C03D447B606B6843F001036B604846FFF7F2
S2144044D05BFF204603B0BDE8F08F22F0030202EBFC
S2144044E0050C8C4580DBC26881686546CA60916071
S2144044F0E0E7B91942F001001E430A447E60486076
S214404500536843F00103083153604846FEF7E8FF1E
S214404510DCE741464846FFF713FB8046D0B154F8E7
S214404520043C23F001023A44A0F10801914200F015
S2144045309E802A1F242A50D8132A23D80346224670
S214404540116819605168596092689A6021464846D9
S214404550FEF7C6FF4846FFF717FF404603B0BDE8E4
S214404560F08F114603B0BDE8F04FFFF7E9BADEF82A
S214404570042022F00302501906F1100C604519DAA7
S214404580704631E723680360636843601B2A63D83C
S21440459000F1080304F10802D2E73B4622681A609D
S2144045A062685A60A2689A603C467546DAF80430FB
S2144045B057467FE73744831B43F00103CBF8087028
S2144045C07B6054F8043C03F001031E43484644F81D
S2144045D0046CFFF7D9FE20467CE72146FFF772FEC3
S2144045E0B4E702EB030C06F110029445FFF63BAF2E
S2144045F05746DAF80C3057F8081F2A1F242ACB6093
S214404600996000F28780132A78D92368CAF8083060
S2144046106368CAF80C301B2A00F2858008340AF119
S214404620100322681A6062685A60A2689A600AEBB1
S2144046300603C6EB0C0242F00102CBF808305A6083
S214404640DAF8043003F001031E434846CAF8046013
S214404650FFF79AFE38463DE7A3688360E368C36089
S214404660242A2CD000F1100304F1100268E750F819
S214404670042C22F0030215441CE7214638467546B2
S2144046803C46FFF71FFE5746DAF8043012E73A4634
S21440469005E7214638461D463C46FFF713FE57467B
S2144046A0DAF8043006E7A368CAF81030E368CAF8B8
S2144046B01430242A18D010340AF118036EE7236900
S2144046C003616369436104F1180200F1180337E798
S2144046D0A168CAF81010E168CAF81410242A0FD04E
S2144046E010340AF11802DAE62369CAF8183063690A
S2144046F0CAF81C3018340AF120034FE73B4690E7CF
S2144047002269CAF818206269CAF81C2018340AF1CF
S2144047102002C4E621463846CDF804C0FFF7D2FD55
S214404720DDF804C083E7A368CAF81030E368CAF827
S2144047301430242A03D010340AF1180371E7236991
S214404740CAF818306369CAF81C3018340AF12003D6
S21440475067E700BF5C040020838903F00903092B48
S21440476001D000207047FEF799BC00BFF8B50C4654
S214404770054610B1836B002B43D0A28993B29904AF
S21440478007D4636E42F4005223F400536366A2815A
S21440479093B200219F06616030D45E0721D5216B1D
S2144047A061B104F14003994202D02846FEF798FED4
S2144047B0E36B636000202063002B3FD12369002B0E
S2144047C04CD0A689B7B2BB071ED1226922602846C4
S2144047D0E169256A6369A8470028606009DD002012
S2144047E0F8BDD8063FD519072BD442F00402A28163
S2144047F0E4E71AD1A38943F02003A3814FF0FF30AA
S214404800F8BDFEF763FCB8E71B4B1C49186801234C
S214404810A38107F00907FFF7BDF8092FA681D4D179
S21440482028462146FEF77AFBCFE7A289002342F0CE
S2144048304002A28163604FF0FF30F8BDA36B236057
S214404840F8BD28462146FEF713FC0028D6D1A2899B
S214404850A06022F00802A06192B2C6E72846214630
S214404860FFF7FEF8ADE742F0400209232B604FF019
S214404870FF30A281F8BD00BFB85440005947400001
S21440488038B5074C0023054608462360FCF702F976
S214404890431C00D038BD2368002BFBD02B6038BDAE
S2144048A04C09002070B40C785E2C2ED000224D1C93
S2144048B016460023C2540133B3F5807FFAD184B143
S2144048C086F0010202556E1C16F8013C2D2B0ED0C8
S2144048D05D2B09D013B11C463546F3E7284670BC1D
S2144048E07047681E70BC7047304670BC7047697829
S2144048F05D29F0D08C42EEDC023503190134A1422A
S21440490003F8012FFADC0236DEE701224C78164621
S2144049108D1CCEE710B50C46B1F90E1000F018FD10
S214404920002803DB236D0344236510BDA38923F4CD
S2144049308053A38110BD00BF2DE9F0410C46898904
S2144049401D46CB051646074606D5B4F90E1000227E
S214404950022300F0E9FCA18921F48051A181384668
S214404960B4F90E1032462B46BDE8F04100F0F4BBD9
S21440497010B50C46B1F90E1000F0D6FCA389421CC7
S2144049800EBF23F4805343F480532065A38110BDAB
S214404990B1F90E1000F048BC2DE9F00F424C82B041
S2144049A0D4F800C001900E4600E02646344614F87F
S2144049B0015B0CEB0500407800F0080000F0FF0AB1
S2144049C00028F2D12D2D5BD02B2D04BF7578B41C5A
S2144049D033F010003CD09946BAF1000F0CBF6FF090
S2144049E0004B4FF0004BBBFBF9F8002709FB18BB08
S2144049F038460CE0303DAB4219DD7E1C05D04045C4
S214404A0023D820D009FB0050012714F8015B0CEB9B
S214404A100506767816F0040FECD116F0030606D09D
S214404A20012E14BF57263726AD1BAB42E5DC7B1C58
S214404A3015D0BAF1000F21D10AB1EFB9116002B01A
S214404A40BDE8F00F70475D45DCDD4FF0FF37DCE733
S214404A50302D1AD0002BBED10A239946BCE70199C7
S214404A60BAF1000F4FF022030CBF6FF000404FF03A
S214404A7000400B60002AE2D0611EDFE74042DBE7E1
S214404A80B41C75784FF0010AA2E7207800F0DF00EA
S214404A90582803D0002B9ED108239CE71023657826
S214404AA09946023498E700BF340400202DE9F04FC1
S214404AB0644C87B094460491D4F80080059099469B
S214404AC00A4600E03246164616F8017B08EB070316
S214404AD05B7803F0080303F0FF01002BF2D12D2F83
S214404AE000F08D802B2F08BF5778029108BF961C88
S214404AF039F010015ED0CA464FEAE97B029C002C92
S214404B0066D000244FF000452046294652465B4674
S214404B10CDF804C000F030FC204603925B46524677
S214404B20294600F029FC002400220023DDF804C0BA
S214404B3019E0303FB94526DD651C12D0994208BFC2
S214404B40904234D38B4208BF82422DD002FB0BF4F6
S214404B500AFB0344A2FB0A232344D21943EBE77320
S214404B60012416F8017B08EB07056D7815F0040F55
S214404B70DFD115F0030506D0012D14BF5725372584
S214404B807F1BB945D8DC611C27D00299002932D159
S214404B9010461946BCF1000F03D054BB049ECCF817
S214404BA0006007B0BDE8F08F039CA742CEDD4FF013
S214404BB0FF34D6E7302F27D0B9F1000F9BD1029CA7
S214404BC04FF00A0A4FF0000B4FF00A09002C98D11C
S214404BD04FF0FF346FF0004596E7029C24BB4FF041
S214404BE0FF306FF00041059C22232360BCF1000F8C
S214404BF0D7D0013ED3E7524263EB4303C8E70124D4
S214404C00961C5778029473E7337803F0DF03582BEB
S214404C100ED0B9F1000F7FF46EAF4FF0080A4FF098
S214404C20000B4FF0080969E700204FF00041DAE733
S214404C3077784FF0100A4FF0000B02364FF010090D
S214404C405CE700BF340400202DE9F00F444C82B0EE
S214404C50D4F800C001900E4600E02646344614F8CC
S214404C60015B0CEB0500407800F0080000F0FF0701
S214404C700028F2D12D2D57D02B2D08BF7578BA4677
S214404C8008BFB41C33F0100039D04FF0FF38B8FBE3
S214404C90F3F803FB08FB6FEA0B0B994600273846F0
S214404CA00CE0303DAB4219DD002F25DB404523D8D4
S214404CB020D009FB0050012714F8015B0CEB0506D9
S214404CC0767816F0040FECD116F0030606D0012EC7
S214404CD014BF57263726AD1BAB42E5DC002F1DDB45
S214404CE0BAF1000F18D10AB1A7B9116002B0BDE8F9
S214404CF0F00F70475D45DCDD4FF0FF37DCE7302DC9
S214404D0017D0002BC1D10A2399464FF0050BDFF888
S214404D105480C3E7611EE8E74042E4E70198222357
S214404D2003604FF0FF30DEE7B41C75784FF0010AA1
S214404D30A8E7207800F0DF00582808D0002BA4D140
S214404D40082399464FF0070B6FF06048A6E71023FC
S214404D50657899464FF00F0B02346FF070489DE728
S214404D6034040020999999192DE9F04F604C85B08C
S214404D70D4F8008000920191039099460A4600E0DC
S214404D803246164616F8017B08EB07035B7803F0BD
S214404D90080303F0FF01002BF2D12D2F7DD02B2FDF
S214404DA008BF5778029108BF961C39F0100255D0BC
S214404DB04FEAE97B4A465B464FF0FF304FF0FF3103
S214404DC000F0DAFA4A4604460D465B464FF0FF309E
S214404DD04FF0FF3100F0D0FACA4694460023002038
S214404DE0002119E0303FB94526DD002B33DB8D42EC
S214404DF008BF84422FD3A94208BFA04229D000FB57
S214404E000BF30AFB0133A0FB0A011944C01941EB1E
S214404E10E771012316F8017B08EB0702527812F07F
S214404E20040FDFD112F0030206D0012A14BF572226
S214404E303722BF1AB945D8DC002B26DB029A02BBC4
S214404E40009A1AB1DBB9019E009B1E6005B0BDE812
S214404E50F08F6745D3DD4FF0FF33DBE7302F21D0AF
S214404E60B9F1000FA4D14FF0050C4FF09934214D05
S214404E704FF00A0A4FF0000B4FF00A09AEE7013E2A
S214404E80E2E7404261EB4101DAE7039922220A60F9
S214404E904FF0FF304FF0FF31D2E70121961C577894
S214404EA0029182E7337803F0DF03582B10D0B9F134
S214404EB0000F7FF47DAF4FF0070C4FF0FF346FF0DC
S214404EC060454FF0080A4FF0000B4FF0080985E7A1
S214404ED077784FF00F0C02364FF0FF346FF0704586
S214404EE04FF0100A4FF0000B4FF0100976E700BF66
S214404EF0340400209999991901F140032DE9F041B5
S214404F000C46096B994214D0666B77003A46FFF719
S214404F103DFA054640B300EB060832464046294671
S214404F20FFF736F9C4F80080256367630020BDE8C4
S214404F30F0814FF48061FEF703FEA8B194F842304A
S214404F4020634FF48062626380F8FF3394F8413008
S214404F5080F8FE3394F8403080F8FD3300F2FD30A0
S214404F6020600020BDE8F0814FF0FF30BDE8F081C2
S214404F7070B50E4601311446054631D010B1836BEC
S214404F80002B30D0A3899A0405D4626E22F40052D6
S214404F9043F40053626623F020039BB29AB2500754
S214404FA0A38106D4D1061BD5120738D443F0040398
S214404FB0A381236BF6B2CBB16268636B9A4209DA7F
S214404FC023685A1E226003F8016C6368013330463A
S214404FD0636070BD28462146FFF78EFF0028EFD05D
S214404FE04FF0FF3070BDFEF771F8CBE723692268BB
S214404FF02BB1934203D212F8010CB0421CD0234688
S2144050006168A26304F14000032220636263E163A7
S21440501003F8426F012223603046626070BD284626
S2144050202146FEF725F80028DAD1A389A06023F0B0
S2144050300803A0619BB2B9E76368013A013384E88C
S2144050400C0070BDF8B50D461446074610B1836B8C
S214405050002B48D0A289A369A36093B2180738D51D
S2144050602669002E35D09904EDB215D523686269BD
S2144050709E1B96421CDA0136A268591C013AA26071
S21440508021601D706369B3421AD0A389DB0701D53E
S2144050900A2D15D02846F8BD636E23F4005342F41B
S2144050A0005263662368A28162699E1B9642E2DBD9
S2144050B038462146FDF7DCFF40B923680126DBE78A
S2144050C038462146FDF7D4FF0028E3D04FF0FF30A6
S2144050D0F8BD38462146FDF7AFFE0028F6D1A28936
S2144050E0266993B2BFE7FDF7F1FFB3E72DE9F0413C
S2144050F01E4686B00C46054617460F4B91B1D3F870
S2144051000080FEF7A3FC0096034621463A46284612
S214405110C047431C03D100228A2332602B6006B06E
S214405120BDE8F0811F68FEF791FC009603462246D4
S214405130284603A9B847ECE77008002021B1FF2AAB
S21440514004D80A7001207047084670478A230360D7
S2144051504FF0FF30704700BF70B5084C064600253C
S214405160084611461A462560FBF72CF8431C00D02B
S21440517070BD2368002BFBD0336070BD4C09002007
S214405180F0B5274C2668D6F8484185B00746002C2F
S21440519041D065681F2D1EDD224818B94FF0FF30FC
S2144051A005B0F0BD4FF4C870039102920193AFF37F
S2144051B000800399029A019B04460028EED0D6F858
S2144051C048512560002060600546C6F84841C4F84E
S2144051D08801C4F88C013FB9AB1C002001356560DE
S2144051E044F8231005B0F0BD04EB85004FF0010CE9
S2144051F0C0F88820D4F888610CFA05F21643022FCE
S214405200C4F88861C0F80831E6D1D4F88C311A4326
S214405210C4F88C21E0E706F5A674C6F84841B8E71E
S214405220B85440000000000038B5074C002305463F
S21440523008462360FBF748FC431C00D038BD236873
S214405240002BFBD02B6038BD4C09002070B50C46B7
S214405250054631B110B1836B002B2FD0B4F90C301A
S2144052600BB9002070BD28462146FDF701FFE36AD2
S214405270064633B12846E16998470028B8BF4FF044
S214405280FF36A3891B061CD4216B41B104F14003B1
S214405290994202D02846FEF723F900232363616C27
S2144052A021B12846FEF71CF900236364FDF788FF0A
S2144052B00023A381FDF786FF304670BDFDF706FF4D
S2144052C0CCE728462169FEF70BF9DDE7024B01469D
S2144052D01868FFF7BBBF00BF3004002038B5084C45
S2144052E000230546084611462360FBF7F1FB431CA6
S2144052F000D038BD2368002BFBD02B6038BD00BFE4
S2144053004C09002038B5074C002305460846236064
S214405310FBF7E4FB431C00D038BD2368002BFBD0D2
S2144053202B6038BD4C09002070B5084C0646002559
S214405330084611461A462560FBF7D2FB431C00D0B0
S21440534070BD2368002BFBD0336070BD4C09002035
S21440535070B5084C06460025084611461A46256094
S214405360FAF710FF431C00D070BD2368002BFBD01B
S214405370336070BD4C0900204BB942B9002908BFC4
S214405380002802D04FF0FF310846FBF749BD82B0F7
S214405390EC462DE90050FBF72BFDDDF804E002B0AB
S2144053A00CBC70472D492D20496E697469616C6943
S2144053B07A6520535049206173206D61737465721D
S2144053C00D0000000A457870656374696E67206159
S2144053D06E20494F207570646174652068657265FB
S2144053E02E2020476F747461206669677572652049
S2144053F06F75742077686963682050494F20706FD6
S214405400727420697320646F696E672069742E20F9
S21440541057726974696E67207468652066756E6336
S21440542074696F6E20697320656173792066726F48
S2144054306D2074686572650A00000000257320259B
S21440544073202564000000007365740063683000B4
S214405450636831000A2573206973206E6F7420617B
S2144054602076616C696420617267756D656E740A3A
S2144054700000000073776565700000000A53656E93
S21440548064696E6720465457203D20256420746F1B
S2144054902073796E74680A000A2564206973206E4A
S2144054A06F7420612076616C696420636F6D6D61F6
S2144054B06E640A0043000000080000200A00000056
S2144054C030313233343536373839414243444546F5
S2144054D000000000303132333435363738396162B7
S2144054E06364656600000000286E756C6C290000D9
S2144054F03030303030303030303030303030303067
S2144055002020202020202020202020202020202056
S2144055100A00010002000300040005000600070020
S214405520080009000A000B000C000D000E000F00DA
S21440553010000000002020202020202020202828A6
S21440554028282820202020202020202020202020FE
S214405550202020202088101010101010101010103E
S214405560101010101004040404040404040404106E
S21440557010101010101041414141414101010101FC
S21440558001010101010101010101010101010101C6
S21440559010101010101042424242424202020202D2
S2144055A00202020202020202020202020202020296
S2144055B01010101020000000000000000000000046
S2144055C00000000000000000000000000000000096
S2144055D00000000000000000000000000000000086
S2144055E00000000000000000000000000000000076
S2144055F00000000000000000000000000000000066
S2144056000000000000000000000000000000000055
S2144056100000000000000000000000000000000045
S2144056200000000000000000000000000000000035
S2144056300000000000000000F8B500BFF8BC08BC41
S2144056409E467047FD2E4000F1004000F8B500BF72
S210405650F8BC08BC9E467047CD004000E9
S20C40565CC8B7FF7F0100000003
S21440566400093D000000000000000000F402002095
S2144056745C030020C403002000000000000000007B
S21440568400000000000000000000000000000000D1
S214405694000000000000000000000000B454400079
S2144056A400000000000000000000000000000000B1
S2144056B400000000000000000000000000000000A1
S2144056C40000000000000000000000000000000091
S2144056D40000000000000000000000000000000081
S2144056E40000000000000000000000000000000071
S2144056F40000000000000000000000000000000061
S2144057040000000000000000000000000000000050
S21440571401000000000000000E33CDAB34126DE6ED
S214405724ECDE05000B000000000000000000000056
S2144057340000000000000000000000000000000020
S2144057440000000000000000000000000000000010
S2144057540000000000000000000000000000000000
S21440576400000000000000000000000000000000F0
S214405A940800002034554000415343494900000063
S214405AA400000000000000000000000000000000AD
S214405AB4000000000000000001000000000000009C
S214405AC4000000005C0400205C0400206404002005
S214405AD4640400206C0400206C040020740400203D
S214405AE4740400207C0400207C04002084040020ED
S214405AF4840400208C0400208C040020940400209D
S214405B04940400209C0400209C040020A40400204C
S214405B14A4040020AC040020AC040020B4040020FC
S214405B24B4040020BC040020BC040020C4040020AC
S214405B34C4040020CC040020CC040020D40400205C
S214405B44D4040020DC040020DC040020E40400200C
S214405B54E4040020EC040020EC040020F4040020BC
S214405B64F4040020FC040020FC040020040500206B
S214405B74040500200C0500200C0500201405002018
S214405B84140500201C0500201C05002024050020C8
S214405B94240500202C0500202C0500203405002078
S214405BA4340500203C0500203C0500204405002028
S214405BB4440500204C0500204C05002054050020D8
S214405BC4540500205C0500205C0500206405002088
S214405BD4640500206C0500206C0500207405002038
